:020000040800F2
:10000000000001206D5400082D4E0008334E0008FA
:10001000394E00083F4E0008454E00080000000021
:100020000000000000000000000000004B4E00082F
:10003000574E000800000000634E00086F4E000895
:10004000B5540008B5540008B5540008B55400086C
:10005000B5540008B5540008B5540008B55400085C
:10006000B5540008B5540008B5540008B55400084C
:10007000B55400087D4E0008B5540008B55400087A
:10008000B5540008B5540008B5540008914E000856
:10009000A54E0008B5540008B5540008B554000832
:1000A000B5540008B5540008B5540008B55400080C
:1000B000B5540008B5540008B5540008B5540008FC
:1000C000B5540008B5540008B5540008B5540008EC
:1000D000B5540008B5540008B5540008B5540008DC
:1000E000B5540008B5540008B5540008B5540008CC
:1000F000B5540008B5540008B5540008B5540008BC
:10010000B5540008B5540008B5540008B5540008AB
:10011000B5540008B5540008B5540008B55400089B
:10012000B5540008B5540008B5540008B55400088B
:1001300000000000000000000000000000000000BF
:1001400000000000000000000000000000000000AF
:10015000000000000000000000000000000000009F
:10016000000000000000000000000000000000008F
:10017000000000000000000000000000000000007F
:10018000000000000000000000000000000000006F
:10019000000000000000000000000000000000005F
:1001A000000000000000000000000000000000004F
:1001B000000000000000000000000000000000003F
:1001C000000000000000000000000000000000002F
:1001D000000000000000000000000000000000001F
:0401E0005FF8E0F1F3
:1001E80010B5054C237833B9044B13B10448AFF369
:1001F80000800123237010BD1C02002000000000B5
:10020800E0BA000808B5034B1BB103490348AFF334
:10021800008008BD0000000020020020E0BA0008AD
:10022800034613F8012B002AFBD1181A013870472E
:1002380081F0004102E000BF83F0004330B54FEA8F
:1002480041044FEA430594EA050F08BF90EA020FFC
:100258001FBF54EA000C55EA020C7FEA645C7FEA8F
:10026800655C00F0E2804FEA5454D4EB5555B8BFB2
:100278006D420CDD2C4480EA020281EA030382EA23
:10028800000083EA010180EA020281EA0303362DB5
:1002980088BF30BD11F0004F4FEA01314FF4801C88
:1002A8004CEA113102D0404261EB410113F0004F9A
:1002B8004FEA03334CEA133302D0524263EB430351
:1002C80094EA050F00F0A780A4F10104D5F1200EEF
:1002D8000DDB02FA0EFC22FA05F2801841F100014A
:1002E80003FA0EF2801843FA05F359410EE0A5F11E
:1002F80020050EF1200E012A03FA0EFC28BF4CF04F
:10030800020C43FA05F3C01851EBE37101F0004504
:1003180007D54FF0000EDCF1000C7EEB00006EEB11
:100328000101B1F5801F1BD3B1F5001F0CD349089B
:100338005FEA30004FEA3C0C04F101044FEA4452F2
:1003480012F5800F80F09A80BCF1004F08BF5FEA79
:10035800500C50F1000041EB045141EA050130BD59
:100368005FEA4C0C404141EB0101013C28BFB1F56B
:10037800801FE9D291F0000F04BF01460020B1FAB6
:1003880081F308BF2033A3F10B03B3F120020CDA89
:100398000C3208DD02F1140CC2F10C0201FA0CF067
:1003A80021FA02F10CE002F11402D8BFC2F1200CCC
:1003B80001FA02F120FA0CFCDCBF41EA0C01904082
:1003C800E41AA2BF01EB0451294330BD6FEA0404CB
:1003D8001F3C1CDA0C340EDC04F11404C4F12002B6
:1003E80020FA04F001FA02F340EA030021FA04F3C8
:1003F80045EA030130BDC4F10C04C4F1200220FA1F
:1004080002F001FA04F340EA0300294630BD21FA5C
:1004180004F0294630BD94F0000F83F4801306BF22
:1004280081F480110134013D4EE77FEA645C18BF16
:100438007FEA655C29D094EA050F08BF90EA020FAD
:1004480005D054EA000C04BF1946104630BD91EAA5
:10045800030F1EBF0021002030BD5FEA545C05D1A8
:100468004000494128BF41F0004130BD14F58004E7
:100478003CBF01F5801130BD01F0004545F0FE415B
:1004880041F470014FF0000030BD7FEA645C1ABF90
:10049800194610467FEA655C1CBF0B46024650EAC7
:1004A800013406BF52EA033591EA030F41F40021F3
:1004B80030BD00BF90F0000F04BF0021704730B579
:1004C8004FF4806404F132044FF000054FF000014E
:1004D80050E700BF90F0000F04BF0021704730B50F
:1004E8004FF4806404F1320410F0004548BF4042E4
:1004F8004FF000013EE700BF42004FEAE2014FEA39
:1005080031014FEA02701FBF12F07F4393F07F4F13
:1005180081F06051704732F07F4208BF704793F016
:100528007F4F04BF41F40021704730B54FF4607429
:1005380001F0004521F000411CE700BF50EA01022C
:1005480008BF704730B54FF000050AE050EA0102D5
:1005580008BF704730B511F0004502D5404261EB45
:1005680041014FF4806404F132045FEA915C3FF486
:10057800D8AE4FF003025FEADC0C18BF03325FEA23
:10058800DC0C18BF033202EBDC02C2F1200300FAD4
:1005980003FC20FA02F001FA03FE40EA0E0021FAF9
:1005A80002F11444BDE600BF70B54FF0FF0C4CF4E7
:1005B800E06C1CEA11541DBF1CEA135594EA0C0F99
:1005C80095EA0C0F00F0DEF82C4481EA030621EAD4
:1005D8004C5123EA4C5350EA013518BF52EA03350F
:1005E80041F4801143F4801338D0A0FB02CE4FF0C1
:1005F8000005E1FB02E506F00042E0FB03E54FF0F1
:100608000006E1FB03569CF0000F18BF4EF0010EE8
:10061800A4F1FF04B6F5007F64F5407404D25FEAE4
:100628004E0E6D4146EB060642EAC62141EA555197
:100638004FEAC52040EA5E504FEACE2EB4F1FD0CD9
:1006480088BFBCF5E06F1ED8BEF1004F08BF5FEA57
:10065800500E50F1000041EB045170BD06F0004609
:1006680046EA010140EA020081EA0301B4EB5C04B6
:10067800C2BFD4EB0C0541EA045170BD41F48011AE
:100688004FF0000E013C00F3AB8014F1360FDEBFD3
:10069800002001F0004170BDC4F10004203C35DAAF
:1006A8000C341BDC04F11404C4F1200500FA05F332
:1006B80020FA04F001FA05F240EA020001F00042D3
:1006C80021F0004110EBD37021FA04F642EB060149
:1006D8005EEA430E08BF20EAD37070BDC4F10C0473
:1006E800C4F1200500FA04F320FA05F001FA04F237
:1006F80040EA020001F0004110EBD37041F1000123
:100708005EEA430E08BF20EAD37070BDC4F120052D
:1007180000FA05F24EEA020E20FA04F301FA05F295
:1007280043EA020321FA04F001F0004121FA04F23D
:1007380020EA020000EBD3705EEA430E08BF20EA0D
:10074800D37070BD94F0000F0FD101F00046400047
:1007580041EB010111F4801F08BF013CF7D041EAC9
:10076800060195F0000F18BF704703F000465200CD
:1007780043EB030313F4801F08BF013DF7D043EA9E
:100788000603704794EA0C0F0CEA135518BF95EA54
:100798000C0F0CD050EA410618BF52EA4306D1D1DB
:1007A80081EA030101F000414FF0000070BD50EAFA
:1007B800410606BF1046194652EA430619D094EA84
:1007C8000C0F02D150EA013613D195EA0C0F05D16E
:1007D80052EA03361CBF104619460AD181EA0301C2
:1007E80001F0004141F0FE4141F470014FF000007A
:1007F80070BD41F0FE4141F4780170BD70B54FF015
:10080800FF0C4CF4E06C1CEA11541DBF1CEA135594
:1008180094EA0C0F95EA0C0F00F0A7F8A4EB050476
:1008280081EA030E52EA03354FEA013100F088806D
:100838004FEA03334FF0805545EA131343EA126336
:100848004FEA022245EA111545EA10654FEA0026EB
:100858000EF000419D4208BF964244F1FD0404F5A4
:10086800407402D25B084FEA3202B61A65EB030500
:100878005B084FEA32024FF480104FF4002CB6EBBD
:10088800020E75EB030E22BFB61A754640EA0C003D
:100898005B084FEA3202B6EB020E75EB030E22BF7D
:1008A800B61A754640EA5C005B084FEA3202B6EBBE
:1008B800020E75EB030E22BFB61A754640EA9C007D
:1008C8005B084FEA3202B6EB020E75EB030E22BF4D
:1008D800B61A754640EADC0055EA060E18D04FEA0B
:1008E800051545EA16754FEA06164FEAC30343EAAB
:1008F80052734FEAC2025FEA1C1CC0D111F4801F78
:100908000BD141EA00014FF000004FF0004CB6E770
:1009180011F4801F04BF01430020B4F1FD0C88BF0F
:10092800BCF5E06F3FF6AFAEB5EB030C04BFB6EB1A
:10093800020C5FEA500C50F1000041EB045170BD0D
:100948000EF0004E4EEA113114EB5C04C2BFD4EB3A
:100958000C0541EA045170BD41F480114FF0000EBE
:10096800013C90E645EA060E8DE60CEA135594EA3A
:100978000C0F08BF95EA0C0F3FF43BAF94EA0C0F3D
:100988000AD150EA01347FF434AF95EA0C0F7FF4B2
:1009980025AF104619462CE795EA0C0F06D152EA06
:1009A80003353FF4FDAE1046194622E750EA4106EA
:1009B80018BF52EA43067FF4C5AE50EA41047FF4FB
:1009C8000DAF52EA43057FF4EBAE12E74FF0FF3C60
:1009D80006E000BF4FF0010C02E000BF4FF0010C31
:1009E8004DF804CD4FEA410C7FEA6C5C4FEA430CAA
:1009F80018BF7FEA6C5C1BD001B050EA410C0CBFF9
:100A080052EA430C91EA030F02BF90EA020F00205A
:100A1800704710F1000F91EA030F58BF994208BFC1
:100A280090422CBFD8176FEAE37040F0010070477E
:100A38004FEA410C7FEA6C5C02D150EA013C07D1D5
:100A48004FEA430C7FEA6C5CD6D152EA033CD3D020
:100A58005DF8040B704700BF8446104662468C461A
:100A68001946634600E000BF01B5FFF7B7FF00284D
:100A780048BF10F1000F01BD4DF808EDFFF7F4FF76
:100A88000CBF012000205DF808FB00BF4DF808ED01
:100A9800FFF7EAFF34BF012000205DF808FB00BF24
:100AA8004DF808EDFFF7E0FF94BF012000205DF846
:100AB80008FB00BF4DF808EDFFF7CEFF94BF0120FB
:100AC80000205DF808FB00BF4DF808EDFFF7C4FFF4
:100AD80034BF012000205DF808FB00BF4FEA410C3D
:100AE8007FEA6C5C02D150EA013C0AD14FEA430C20
:100AF8007FEA6C5C02D152EA033C02D14FF000005D
:100B080070474FF0010070474FEA410212F500129A
:100B180015D211D56FF47873B3EB625212D94FEA3C
:100B2800C12343F0004343EA505311F0004F23FA26
:100B380002F018BF404270474FF00000704750EA7B
:100B4800013005D111F0004008BF6FF00040704738
:100B58004FF00000704700BF4FEA4102B2F1E04396
:100B680024BFB3F5001CDCF1FE5C0DD901F0004C8C
:100B78004FEAC0024CEA5070B2F1004F40EB8300DC
:100B880008BF20F00100704711F0804F21D113F108
:100B98003872BCBF01F00040704741F480114FEA41
:100BA8005252C2F11802C2F1200C10FA0CF320FACA
:100BB80002F018BF40F001004FEAC1234FEAD323E7
:100BC80003FA0CFC40EA0C0023FA02F34FEA430351
:100BD800CCE77FEA625307D150EA01331EBF4FF0DA
:100BE800FE4040F44000704701F0004040F0FE40F5
:100BF80040F40000704700BF80F0004002E000BFF2
:100C080081F0004142001FBF5FEA410392EA030FEF
:100C18007FEA226C7FEA236C6AD04FEA1262D2EB39
:100C28001363C1BFD218414048404140B8BF5B423E
:100C3800192B88BF704710F0004F40F4000020F0D7
:100C48007F4018BF404211F0004F41F4000121F0ED
:100C58007F4118BF494292EA030F3FD0A2F1010237
:100C680041FA03FC10EB0C00C3F1200301FA03F175
:100C780000F0004302D5494260EB4000B0F5000F98
:100C880013D3B0F1807F06D340084FEA310102F157
:100C98000102FE2A51D2B1F1004F40EBC25008BF09
:100CA80020F0010040EA03007047490040EB0000D3
:100CB800013A28BFB0F5000FEDD2B0FA80FCACF1D4
:100CC800080CB2EB0C0200FA0CF0AABF00EBC25001
:100CD80052421843BCBFD0401843704792F0000FEF
:100CE80081F4000106BF80F400000132013BB5E742
:100CF8004FEA41037FEA226C18BF7FEA236C21D0B8
:100D080092EA030F04D092F0000F08BF084670471C
:100D180090EA010F1CBF0020704712F07F4F04D1EA
:100D2800400028BF40F00040704712F100723CBFFD
:100D380000F50000704700F0004343F0FE4040F427
:100D4800000070477FEA226216BF08467FEA2363E5
:100D58000146420206BF5FEA412390EA010F40F4D0
:100D6800800070474FF0000304E000BF10F000431C
:100D780048BF40425FEA000C08BF704743F0964303
:100D880001464FF000001CE050EA010208BF70471E
:100D98004FF000030AE000BF50EA010208BF7047A5
:100DA80011F0004302D5404261EB41015FEA010CBA
:100DB80002BF84460146002043F0B64308BFA3F1B2
:100DC8008053A3F50003BCFA8CF2083AA3EBC25394
:100DD80010DB01FA02FC634400FA02FCC2F12002B3
:100DE800BCF1004F20FA02F243EB020008BF20F0EA
:100DF8000100704702F1200201FA02FCC2F1200250
:100E080050EA4C0021FA02F243EB020008BF20EA44
:100E1800DC7070474FF0FF0C1CEAD0521EBF1CEA72
:100E2800D15392EA0C0F93EA0C0F6FD01A4480EA60
:100E3800010C400218BF5FEA41211ED04FF0006349
:100E480043EA501043EA5111A0FB01310CF0004075
:100E5800B1F5000F3EBF490041EAD3715B0040EA9B
:100E6800010062F17F02FD2A1DD8B3F1004F40EB6B
:100E7800C25008BF20F00100704790F0000F0CF03E
:100E8800004C08BF49024CEA502040EA51207F3A02
:100E9800C2BFD2F1FF0340EAC250704740F40000DD
:100EA8004FF00003013A5DDC12F1190FDCBF00F0CE
:100EB80000407047C2F10002410021FA02F1C2F17C
:100EC800200200FA02FC5FEA310040F1000053EA18
:100ED8004C0308BF20EADC70704792F0000F00F066
:100EE800004C02BF400010F4000F013AF9D040EA6C
:100EF8000C0093F0000F01F0004C02BF490011F400
:100F0800000F013BF9D041EA0C018FE70CEAD153FD
:100F180092EA0C0F18BF93EA0C0F0AD030F0004C7D
:100F280018BF31F0004CD8D180EA010000F0004031
:100F3800704790F0000F17BF90F0004F084691F0EF
:100F4800000F91F0004F14D092EA0C0F01D1420229
:100F58000FD193EA0C0F03D14B0218BF084608D1F2
:100F680080EA010000F0004040F0FE4040F400003C
:100F7800704740F0FE4040F4400070474FF0FF0CCF
:100F88001CEAD0521EBF1CEAD15392EA0C0F93EA16
:100F98000C0F69D0A2EB030280EA010C49024FEA68
:100FA800402037D04FF0805343EA111143EA101321
:100FB8000CF000408B4238BF5B0042F17D024FF4D9
:100FC800000C8B4224BF5B1A40EA0C00B3EB510FB4
:100FD80024BFA3EB510340EA5C00B3EB910F24BF9D
:100FE800A3EB910340EA9C00B3EBD10F24BFA3EB22
:100FF800D10340EADC001B0118BF5FEA1C1CE0D1EA
:10100800FD2A3FF650AF8B4240EBC25008BF20F09C
:10101800010070470CF0004C4CEA50207F32C2BFF0
:10102800D2F1FF0340EAC250704740F400004FF08D
:101038000003013A37E792F0000F00F0004C02BFBE
:10104800400010F4000F013AF9D040EA0C0093F088
:10105800000F01F0004C02BF490011F4000F013BE2
:10106800F9D041EA0C0195E70CEAD15392EA0C0F4A
:1010780008D142027FF47DAF93EA0C0F7FF470AF82
:10108800084676E793EA0C0F04D14B023FF44CAFC5
:1010980008466EE730F0004C18BF31F0004CCAD15A
:1010A80030F000427FF45CAF31F000437FF43CAF96
:1010B8005FE700BF4FF0FF3C06E000BF4FF0010CB8
:1010C80002E000BF4FF0010C4DF804CD4FEA40029A
:1010D8004FEA41037FEA226C18BF7FEA236C11D0E4
:1010E80001B052EA530C18BF90EA010F58BFB2EB97
:1010F800030088BFC81738BF6FEAE17018BF40F017
:10110800010070477FEA226C02D15FEA402C05D1CA
:101118007FEA236CE4D15FEA412CE1D05DF8040B4F
:10112800704700BF844608466146FFE70FB5FFF7E2
:10113800C9FF002848BF10F1000F0FBD4DF808ED9A
:10114800FFF7F4FF0CBF012000205DF808FB00BF8B
:101158004DF808EDFFF7EAFF34BF012000205DF8E5
:1011680008FB00BF4DF808EDFFF7E0FF94BF012032
:1011780000205DF808FB00BF4DF808EDFFF7D2FF2F
:1011880094BF012000205DF808FB00BF4DF808ED72
:10119800FFF7C8FF34BF012000205DF808FB00BF3F
:1011A8004FEA4002B2F1FE4F0FD34FF09E03B3EB6C
:1011B80012620DD94FEA002343F0004310F0004FAC
:1011C80023FA02F018BF404270474FF00000704702
:1011D80012F1610F01D1420205D110F0004008BFA1
:1011E8006FF0004070474FF00000704790B589B02D
:1011F80002AF0446084611461A462346FB800346BA
:10120800BB800B467B8013463B800023FB82002378
:10121800BB820023FB740023BB740023BB60002344
:101228003B820023FB817A88FB88D31ABB60BB68AA
:10123800002B01DA0123FB740023BB603A88BB88CA
:10124800D31ABB60BB68002B01DA0123BB74FB7C9B
:10125800002B06D17A88FB88D31AFB82FB883B8255
:1012680005E0FA887B88D31AFB827B883B82BB7CAB
:10127800002B06D13A88BB88D31ABB82BB88FB8176
:1012880005E0BA883B88D31ABB823B88FB81BC8ABD
:10129800FA8AF989388A3B8D0093234600F05EFC70
:1012A80000BF1C37BD4690BD90B58DB002AFB96088
:1012B80011461A460346FB730B46BB811346FB8057
:1012C800FB7B1E2B61D997F90F30002B5DDBBB68C8
:1012D8001B78FB77BB685B78BB77BB689B787B77B1
:1012E800BB68DB783B77FB7B203BFA7F02FB03F391
:1012F8000433BA681344BB61BB7F9AB27B7F9CB24C
:10130800F988B889BB8F0093234600F027FC002397
:101318007B6235E000233B622BE03B7F3A6A03FBAC
:1013280002F27B6ADB1003F01F0313440133BA692E
:1013380013441B78FB757B6A03F00703012202FA4A
:1013480003F3BB75FA7DBB7D1340DBB2002B0DD0D8
:101358003B6A9AB2BB89134498B27B6A9AB2FB88FB
:1013680013449BB23A8F194600F092FB3B6A013353
:101378003B62BB7F3A6A9A42CFDB7B6A01337B626E
:101388007B7F7A6A9A42C5DB00E000BF2C37BD46F6
:1013980090BD80B58AB002AFF860B96011461A46B0
:1013A8000B46FB801346BB80BB681B78FB77BB688A
:1013B8005B78BB772DE0FB681878B988FA88BB8D15
:1013C80001933B8D00930B46B968FFF76DFFFB68EF
:1013D8001B78203BFA7F02FB03F30433BA681344FB
:1013E800BB61BB691B78FB75FB7D9A1CBB7F9A426E
:1013F80007DAFB7D9AB2FB8813449BB20233FB8069
:1014080004E0BB7F9AB2FB881344FB80FB6801337E
:10141800FB60FB681B78002BCDD100BF00BF2037D5
:10142800BD4680BD80B582B000AF78607B68064A53
:10143800934205D101224FF40041044806F0D7FA3F
:1014480000BF0837BD4680BD101C002000100140B9
:1014580080B582B000AF0346FB7100BF084B1B6824
:101468009B6803F00203022BF8D1FB1D01221946E9
:10147800034807F027FA00BF0837BD4680BD00BF04
:10148800101C002080B582B000AF78600B467B80CE
:1014980000BF084B1B689B6803F00203022BF8D1BE
:1014A8007B881A467968034807F00CFA00BF0837AA
:1014B800BD4680BD101C002080B582B000AF034639
:1014C800FB7100220121084806F091FA00224FF42E
:1014D8000041064806F08BFAFB791846FFF7B8FF7B
:1014E80000BF0837BD4680BD000C01400010014018
:1014F80080B582B000AF0346FB7101220121084884
:1015080006F075FA00224FF40041064806F06FFA1B
:10151800FB791846FFF79CFF00BF0837BD4680BD22
:10152800000C01400010014080B582B000AF786027
:101538000B467B8001220121084806F058FA002258
:101548004FF40041064806F052FA7B88194678683D
:10155800FFF798FF00BF0837BD4680BD000C01406B
:101568000010014090B585B000AF0446084611460A
:101578001A462346FB800346BB800B467B801346F6
:101588003B80FB881B0A9BB2DBB23B73FB88DBB258
:101598007B737B881B0A9BB2DBB2BB737B88DBB295
:1015A800FB732A20FFF788FF07F10C030421184674
:1015B800FFF7BAFFBB881B0A9BB2DBB23B73BB8841
:1015C800DBB27B733B881B0A9BB2DBB2BB733B88E5
:1015D800DBB2FB732B20FFF76FFF07F10C0304212D
:1015E8001846FFF7A1FF2C20FFF766FF00BF14374E
:1015F800BD4690BD80B500AF002202210D4806F01F
:10160800F6F90A2003F0B6FF00224FF400410A4819
:1016180006F0EDF90A2003F0ADFF0122022105488A
:1016280006F0E5F901224FF40041034806F0DFF91E
:1016380000BF80BD000C01400010014080B500AF24
:1016480001220221024806F0D2F900BF80BD00BF86
:10165800000C014080B500AFFFF7F0FFFFF7CAFFAD
:101668000120FFF729FF0A2003F084FFCB20FFF7B2
:1016780023FF3920FFF73CFF2C20FFF739FF00201C
:10168800FFF736FF3420FFF733FF0220FFF730FF64
:10169800CF20FFF711FF0020FFF72AFFC120FFF737
:1016A80027FF3020FFF724FFE820FFF705FF8520FC
:1016B800FFF71EFF0020FFF71BFF7820FFF718FF3A
:1016C800EA20FFF7F9FE0020FFF712FF0020FFF7DE
:1016D8000FFFED20FFF7F0FE6420FFF709FF03205E
:1016E800FFF706FF1220FFF703FF8120FFF700FF37
:1016F800F720FFF7E1FE2020FFF7FAFEC020FFF7F2
:10170800DBFE2320FFF7F4FEC120FFF7D5FE1020F3
:10171800FFF7EEFEC520FFF7CFFE3E20FFF7E8FEFD
:101728002820FFF7E5FEC720FFF7C6FE8620FFF753
:10173800DFFE3620FFF7C0FE4820FFF7D9FE3A202B
:10174800FFF7BAFE5520FFF7D3FEB120FFF7B4FE2E
:101758000020FFF7CDFE1820FFF7CAFEB620FFF7DE
:10176800ABFE0820FFF7C4FE8220FFF7C1FE27204A
:10177800FFF7BEFEF220FFF79FFE0020FFF7B8FE3E
:101788002620FFF799FE0120FFF7B2FEE020FFF7C1
:1017980093FE0F20FFF7ACFE3120FFF7A9FE2B20A8
:1017A800FFF7A6FE0C20FFF7A3FE0E20FFF7A0FE12
:1017B8000820FFF79DFE4E20FFF79AFEF120FFF765
:1017C80097FE3720FFF794FE0720FFF791FE1020C1
:1017D800FFF78EFE0320FFF78BFE0E20FFF788FE33
:1017E8000920FFF785FE0020FFF782FEE120FFF7C2
:1017F80063FE0020FFF77CFE0E20FFF779FE142021
:10180800FFF776FE0320FFF773FE1120FFF770FE47
:101818000720FFF76DFE3120FFF76AFEC120FFF7B2
:1018280067FE4820FFF764FE0820FFF761FE0F20DF
:10183800FFF75EFE0C20FFF75BFE3120FFF758FE36
:101848003620FFF755FE0F20FFF752FE1120FFF755
:1018580033FE642003F08EFE2920FFF72DFE0020C2
:1018680000F002F800BF80BD80B582B000AF03462B
:10187800FB713620FFF720FE012003F07BFEFB7989
:10188800032B37D801A252F823F000BFA51800088F
:10189800BB180008D1180008E71800084820FFF70F
:1018A80027FE174BF0221A80164B4FF4A0721A80AD
:1018B80021E02820FFF71CFE114B4FF4A0721A807C
:1018C800104BF0221A8016E08820FFF711FE0C4B0F
:1018D800F0221A800B4B4FF4A0721A800BE0E8201C
:1018E800FFF706FE064B4FF4A0721A80054BF02254
:1018F8001A8000E000BF00BF0837BD4680BD00BFAA
:1019080002000020000000202DE9F0438DB000AF58
:1019180003463960FB806B461E4600237B623B68AA
:101928005B00B3F5FA7F02D23B687B6202E04FF4BA
:10193800FA737B62012201213F4806F058F8002221
:101948004FF400413D4806F052F8FB881B0A9BB251
:1019580087F82330796A0B46013BFB6100238846F0
:1019680099464FF000024FF000034FEAC90343EADB
:1019780058734FEAC80200230C461D464FF0000278
:101988004FF00003EB0043EA5473E200CB1DDB0881
:10199800DB00ADEB030D6B460033BB610023BB627C
:1019A8000EE0BA69BB6A134497F823201A70BB6A21
:1019B8000133FA88D1B2BA69D154BB6A0233BB6227
:1019C800BA6A7B6A9A42ECD33B685B007B617A69AE
:1019D8007B6AB2FBF3F33B617B697A6AB3FBF2F291
:1019E800796A01FB02F29B1AFB603B69002B10D05D
:1019F8000023FB6209E07B6A9AB20A23B96910489E
:101A080006F01CFEFB6A0133FB62FA6A3B699A42E4
:101A1800F1D3FB689AB20A23B969094806F00EFEA9
:101A280001224FF40041054805F0E1FFB54600BF2B
:101A38003437BD46BDE8F083000C0140001001407A
:101A4800101C002080B582B000AF0346FB800E4B0F
:101A58001B889AB20D4B1B889BB200210020FFF710
:101A680081FD094B1B889BB21A46084B1B889BB209
:101A780002FB03F31A46FB8811461846FFF744FF9A
:101A880000BF0837BD4680BD0200002000000020CE
:101A980080B586B000AF0346FB800B46BB8013467B
:101AA8007B802C4B1B889BB2FA889A424DD22A4BDA
:101AB8001B889BB2BA889A4247D2FB881B0A9BB202
:101AC800DBB23B75FB88DBB27B75FB8801331B12ED
:101AD800DBB2BB75FB88DBB20133DBB2FB75BB88BD
:101AE8001B0A9BB2DBB23B74BB88DBB27B74BB883E
:101AF80001331B12DBB2BB74BB88DBB20133DBB230
:101B0800FB747B881B0A9BB2DBB23B737B88DBB21E
:101B18007B732A20FFF7D0FC07F114030421184631
:101B2800FFF702FD2B20FFF7C7FC07F11003042184
:101B38001846FFF7F9FC2C20FFF7BEFC07F10C0351
:101B480002211846FFF7F0FC00E000BF1837BD4639
:101B580080BD00BF020000200000002090B583B0C7
:101B680000AF0446084611461A462346FB80034642
:101B7800BB800B467B8013463B80244B1B889BB263
:101B8800FA889A423DD2224B1B889BB2BA889A4265
:101B980037D2FA887B8813441C4A128892B293423F
:101BA80005DD1A4B1B889AB2FB88D31A7B80BA884A
:101BB8003B881344164A128892B2934205DD144BAF
:101BC8001B889AB2BB88D31A3B80FA887B88134457
:101BD8009BB2013B9CB2BA883B8813449BB2013B41
:101BE8009BB2B988F8882246FFF7BCFC3B887A8804
:101BF80002FB03F31A463B8B11461846FFF784FE97
:101C080000E000BF0C37BD4690BD00BF02000020B9
:101C18000000002090B583B000AF04460846114686
:101C28001A462346FB800346BB800B467B8013463F
:101C38003B80184B1B889BB2FA889A4225D2164BD8
:101C48001B889BB2BA889A421FD2BA887B881344F1
:101C5800114A128892B2934205DD0F4B1B889AB243
:101C6800BB88D31A7B80BA887B8813449BB2013B1C
:101C78009BB2FA88B988F888FFF774FC7A883B88A1
:101C880011461846FFF740FE00E000BF0C37BD467E
:101C980090BD00BF020000200000002080B584B085
:101CA80000AF3B1D00221A605A609A600A237B60CD
:101CB8000123BB600323FB603B1D1946054803F065
:101CC80053FF0346002B01D002F0C6FC00BF1037BB
:101CD800BD4680BD7C1B002080B584B000AF3B1D95
:101CE80000221A605A609A600B237B600123BB6054
:101CF8000323FB603B1D1946054803F035FF0346E7
:101D0800002B01D002F0A8FC00BF1037BD4680BDF3
:101D18007C1B002080B584B000AF3B1D00221A60F8
:101D28005A609A600C237B600123BB600323FB602D
:101D38003B1D1946054803F017FF0346002B01D049
:101D480002F08AFC00BF1037BD4680BD7C1B002016
:101D580080B584B000AF3B1D00221A605A609A60BB
:101D68000D237B600123BB600323FB603B1D1946E9
:101D7800054803F0F9FE0346002B01D002F06CFC85
:101D880000BF1037BD4680BD7C1B002080B500AF6A
:101D9800FFF784FF274803F0FBFC4FF47A712548CE
:101DA80003F0D0FD234803F0D3FE03469AB2224B3A
:101DB8001A80204803F09AFDFFF78EFF1D4803F0B4
:101DC800E7FC4FF47A711B4803F0BCFD194803F097
:101DD800BFFE03469AB2184B5A80164803F086FD98
:101DE800FFF798FF134803F0D3FC4FF47A711148BA
:101DF80003F0A8FD0F4803F0ABFE03469AB20E4B62
:101E08009A800C4803F072FDFFF7A2FF094803F01F
:101E1800BFFC4FF47A71074803F094FD054803F0BE
:101E280097FE03469AB2044BDA80024803F05EFD3F
:101E380000BF80BD7C1B00203802002080B500AFA9
:101E48000C4B1B8803F00103002B0DD00A4B1B78A9
:101E5800312B06D8084B1B780133DAB2064B1A70BF
:101E680005E002F00FFC02E0034B00221A7000BFED
:101E780080BD00BF400200204402002080B500AFB2
:101E8800504B00221A8002F019F90346002B06D0A5
:101E98004C4B1B8843F008039AB24A4B1A8002F055
:101EA8001FF90346002B06D0464B1B8843F010034E
:101EB8009AB2444B1A8002F025F90346002B06D04B
:101EC800404B1B8843F004039AB23E4B1A8002F041
:101ED8002BF90346002B06D03A4B1B8843F002032C
:101EE8009AB2384B1A8002F02FF90346002B06D01D
:101EF800344B1B8843F020039AB2324B1A8002F00D
:101F080035F90346002B06D02E4B1B8843F00103FE
:101F18009AB22C4B1A8002F091F80346002B06D097
:101F2800284B1B8843F480739AB2264B1A8002F020
:101F380095F80346002B06D0224B1B8843F4007308
:101F48009AB2204B1A8002F099F80346002B06D06B
:101F58001C4B1B8843F480639AB21A4B1A8002F018
:101F68009DF80346002B06D0164B1B8843F40063EC
:101F78009AB2144B1A80144B1B8803F00403002BED
:101F8800104B1B88DBB203F00203DAB20D4B1B883F
:101F9800DBB203F00803DBB21946104603F04EF833
:101FA800084B1B88DBB203F00403DBB2184601F0D0
:101FB800FFFEFFF743FF034B1A88034B1A8000BF4D
:101FC80080BD00BF40020020420200200000000047
:101FD80080B500AF364B1B781846FEF7C3FE0346A4
:101FE8001846FEF789FA2CA3D3E90023FEF724F953
:101FF80002460B461046194629A3D3E90023FEF7EB
:10200800D3FA02460B46104619464FF00002294BF8
:10201800FEF7F4FB02460B461046194622A3D3E905
:102028000023FEF70BF902460B4610461946FEF749
:1020380093FD0346204A13601F4B1B681F4918462F
:10204800FFF79AF80346002B14D01D4B00221A7094
:102058001C4B1B780133DAB21A4B1A70194B1B78D8
:10206800142B17D9184B1B78052B13D1164B0022AC
:102078001A700FE0124B1B780133DAB2104B1A704A
:10208800104B00221A700E4B1B78142B02D90E4BE2
:1020980005221A7000BF80BD0000000000C0624029
:1020A800CCCCCCCCCCCC1A40CDCCCCCCCCCC3340CA
:1020B8004D020020000049405C02002000009041D1
:1020C8004502002046020020DC1C002080B483B0BA
:1020D80000AF0346FB7100BF0C37BD4680BC70479C
:1020E80080B483B000AF0346FB71134AFB791370C9
:1020F800114B1B78402B11D0402B13DC102B09D02F
:10210800102B0FDC002B11D00C2B0BD10B4B082202
:102118001A700CE0094B09221A7008E0074B0A22D2
:102128001A7004E0054B0B221A7000E000BF00BFD4
:102138000C37BD4680BC70474E020020DC1C0020D6
:1021480080B582B000AF0346FB71FB79002B06D047
:1021580001224FF48051074805F049FC05E00022B0
:102168004FF48051034805F042FC00BF0837BD46D4
:1021780080BD00BF000C014080B483B000AF0346AF
:102188000A46FB711346BB71BB79012B01D10123B0
:1021980000E0002318460C37BD4680BC704780B469
:1021A80083B000AF0346FB710B46BB711346BB807F
:1021B800FB79002B00D100BF00BF0C37BD4680BCA7
:1021C8007047000080B584B000AF0346FB7101235F
:1021D800FB73FB7B1B4AD35CFB72FA7AFB791146D3
:1021E8001846FFF7C9FF0346BB72BB7A012B07D11C
:1021F800FB7B0133134AD35CBB81FB7B0233FB734C
:10220800BB7A022B10D1FB7B01330E4AD35C9BB205
:102218001B029AB2FB7B02330A49CB5C9BB2134484
:10222800BB81FB7B0333FB73BB7A002B05D0BA89D8
:10223800F97AFB791846FFF7B2FF00BF1037BD46A1
:1022480080BD00BFC002002080B500AF464B1B68B0
:10225800402B2AD1454B1B78B02B40F04F810020F2
:10226800FFF7B0FF414B5B78012B03D13F4B9A78C6
:102278003F4B1A703D4BDB78902B07D13B4B1A79BB
:102288003C4B1A70394B5A793B4B1A70374B5B7879
:10229800932B40F03381354B1B79142B40F02E8162
:1022A800324B5A79354B1A7028E12F4B1B68082B93
:1022B8006AD12E4B1B78B02B40F022810120FFF70A
:1022C80081FF2A4B5B78012B03D1284B9A782C4B42
:1022D8001A70264BDB78012B03D1244B1A79284B33
:1022E8001A70224B5B79012B03D1204B9A79244B2E
:1022F8001A701E4B5B780C2B05D11C4B9A78214B1E
:102308001A70FFF765FE194BDB780C2B05D1174BBC
:102318001A791C4B1A70FFF75BFE144B5B790C2B78
:1023280005D1124B9A79174B1A70FFF751FE0F4BD4
:102338005B78072B04D10D4B9B781846FFF7D0FE2E
:102348000A4BDB78072B04D1084B1B791846FFF79B
:10235800C7FE064B5B79072B40F0D280034B9B7975
:102368001846FFF7BDFECBE0A4020020C002002003
:102378003C000020D61C0020D51C00204F02002065
:102388004C0200204D0200205F4B1B68102B40F0D0
:10239800BA805E4B1B78B02B13D10220FFF712FFD7
:1023A8005A4B5B78012B03D1584B9A78584B1A70CB
:1023B800564B5B780B2B04D1544B9B785AB2554B38
:1023C8001A70524B1B78302B49D1504B5B78082B35
:1023D80045D14E4BDB782C2B02D14F4B01221A7082
:1023E8004A4BDB782D2B02D14C4B01221A70474BFC
:1023F800DB782E2B02D14A4B01221A70434BDB7833
:102408002F2B02D1474B01221A70404BDB78302B1F
:1024180002D1454B01221A703C4BDB78312B02D19B
:10242800424B01221A70394BDB78322B02D1404BD8
:1024380001221A70354BDB78332B02D13D4B012238
:102448001A70324BDB78342B02D13B4B01221A70C5
:102458002E4BDB78352B02D1384B01221A702B4BCF
:102468001B78312B4ED1294B5B78082B4AD1274B4F
:10247800DB782C2B02D1284B00221A70234BDB78F7
:102488002D2B02D1254B00221A70204BDB782E2BE6
:1024980002D1234B00221A701C4BDB782F2B02D160
:1024A800204B00221A70194BDB78302B02D11E4BBF
:1024B80000221A70154BDB78312B02D11B4B0022FE
:1024C8001A70124BDB78322B02D1194B00221A708A
:1024D8000E4BDB78332B02D1164B00221A700B4BB4
:1024E800DB78342B02D1144B00221A70074BDB78AF
:1024F800352B07D1114B00221A7003E000BF02E010
:1025080000BF00E000BF80BDA4020020C002002080
:102518003D000020580200206002002061020020D7
:10252800620200206302002064020020650200208D
:10253800660200206702002068020020690200206D
:1025480080B483B000AF0346FB71FA7913469B0051
:102558001A44054B1B78013B1344044AD35C1846C4
:102568000C37BD4680BC70470400002008000020DE
:1025780080B500AF8F4B1B780133DAB28D4B1A70E0
:102588008C4B1B780A2B02D18A4B00221A708A4B7B
:10259800B0221A70874B1B78092B00F2088101A220
:1025A80052F823F0D5250008FD2500082526000847
:1025B8004D260008752600089D260008C526000837
:1025C800EB260008112700085B2700087B4B1B78C7
:1025D800002B00F0DB80784B2C225A700020FFF78C
:1025E800AFFF03461A46744B9A700321402000F04F
:1025F800F3FCCBE0724B1B78002B00F0C9806E4BCC
:102608002D225A700120FFF79BFF03461A466A4B9A
:102618009A700321402000F0DFFCB9E0694B1B7879
:10262800002B00F0B780644B2E225A700220FFF76F
:1026380087FF03461A46604B9A700321402000F03A
:10264800CBFCA7E0604B1B78002B00F0A5805A4B11
:102658002F225A700320FFF773FF03461A46564B82
:102668009A700321402000F0B7FC95E0574B1B7887
:10267800002B00F09380504B30225A700420FFF753
:102688005FFF03461A464C4B9A700321402000F026
:10269800A3FC83E04E4B1B78002B00F08180464B57
:1026A80031225A700520FFF74BFF03461A46424B6A
:1026B8009A700321402000F08FFC71E0454B1B7895
:1026C800002B6FD03C4B32225A700620FFF738FFA0
:1026D80003461A46384B9A700321402000F07CFCD0
:1026E80060E03D4B1B78002B5ED0334B33225A7091
:1026F8000720FFF725FF03461A462F4B9A70032140
:10270800402000F069FC4FE0344B1B78002B0DD0C3
:10271800294B34225A700820FFF712FF03461A4645
:10272800254B9A700321402000F056FC2C4B1B7857
:10273800002B3BD0204B35225A700920FFF700FFB1
:1027480003461A461C4B9A700321402000F044FCB3
:102758002CE0194BB0221A70174B92225A70164B64
:10276800FF229A70144BFF22DA70134B93221A71CE
:102778001C4B1B78203BDAB20F4B5A710E4B0022D0
:102788009A710721402000F027FC10E000BF0EE0FE
:1027980000BF0CE000BF0AE000BF08E000BF06E091
:1027A80000BF04E000BF02E000BF00E000BF00BFC0
:1027B80080BD00BF6C02002098020020600200204B
:1027C80061020020620200206302002064020020EF
:1027D80065020020660200206702002068020020CF
:1027E800690200200400002080B500AF524B1B880E
:1027F8004FF6FF72934200F09D804F4B1B880133C8
:102808009AB24D4B1A804C4B1B88042B24D14B4B4E
:1028180003221A70494B00225A7001F023FF034625
:10282800002B03D0454B01229A7010E0444B1B78D3
:102838000C2B09D8414B0B229A70414B1B78013362
:10284800DAB23F4B1A7002E03C4B0F229A70032118
:102858004FF42F7000F0C0FB374B1B88082B1ED19C
:10286800364B03221A70354B00225A70354B1B78B1
:102878000133DAB2334B1A70324B1B7803F0020380
:10288800DBB2002B03D12D4B02229A7002E02B4BB6
:102898000A229A7003214FF42D7000F09DFB264BFD
:1028A8001B880C2B0DD1254B03221A70234B0022B9
:1028B8005A70224B1D229A7003214FF46B7000F05E
:1028C8008BFB1D4B1B88102B16D11C4B03221A7037
:1028D8001A4B00225A7001F0C5FE0346002B03D0A4
:1028E800164B04229A7002E0144B2C229A70032192
:1028F8004FF4697000F070FB0F4B1B88172B19D928
:102908000D4B00221A800D4B03221A700B4B00222C
:102918005A7001F0A7FE0346002B03D0074B0A228A
:102928009A7002E0054B1A229A7003214FF427701F
:1029380000F052FB00BF80BD3A0000209802002042
:102948006A0200206D02002080B500AF544B1B784E
:10295800103B152B00F2A28001A252F823F000BF11
:10296800C1290008A52A0008A52A0008A52A0008E8
:10297800A52A0008A52A0008A52A0008A52A0008F3
:10298800A52A0008A52A0008A52A0008A52A0008E3
:10299800A52A0008A52A0008A52A0008A52A0008D3
:1029A800E7290008A52A0008772A0008192A00083C
:1029B800312A0008652A00083A4B1B78102B62D18F
:1029C800394B1B78102B5ED100F082FB034640F296
:1029D8006C72934257D9324B20221A7053E0314B14
:1029E8001B78202B0BD1304B1B78202B07D102F002
:1029F800DBFC0346002B02D0294B23221A7001F07E
:102A080031FE0346002B40D0254B01221A703CE0D2
:102A1800244B1B78252B3AD1234B1B78252B36D1F9
:102A28001F4B24221A7032E002F0BEFC0346002B32
:102A380003D01B4B25221A702BE01C4B1B7801334B
:102A4800DAB21A4B1A70194B1B78072B21D9144B81
:102A580022221A70154B00221A701AE002F0A4FC08
:102A68000346002B17D10E4B24221A7013E00D4B8E
:102A78001B78202B11D10C4B1B78202B0DD1084B28
:102A880020221A7009E000BF08E000BF06E000BF7E
:102A980004E000BF02E000BF00E000BF00BF80BD4F
:102AA8003C0000204C0200203D0000206B0200206A
:102AB80080B582B000AF284B1B680133264A1360EB
:102AC800264B1B680133254A1360234B1B6803F010
:102AD8000303012B0AD1224BAA221A70204B04228D
:102AE8005A700221AA2000F077FA49E01A4B1B68B5
:102AF80003F00303022B3BD1FFF726FF194B1B788A
:102B08001F2B19D9164BB0221A70154B01225A7077
:102B1800144B1A78124B9A70114B9022DA70124BA0
:102B28001A780F4B1A71114B1A780D4B5A710621EE
:102B3800402000F051FA23E0094BB0221A70084BEC
:102B480001225A70074B1A78054B9A7003214020CE
:102B580000F042FA14E000BF48020020D81C002010
:102B6800980200203C000020D61C0020D51C002024
:102B7800914B1B6803F00303032B01D1FFF7F8FC0B
:102B88008E4B1B68DBB203F00103DBB21846FFF77C
:102B98009DFA8A4B1B68142B02D10120FFF7D0FA4B
:102BA800864B1B681C2B02D10020FFF7C9FA834B08
:102BB8001B681E2B03D0814B1B681F2B1BD1804B1E
:102BC80023221A707E4B00225A707D4B00229A7085
:102BD8007B4B0822DA707A4BFC221A71784B8022E0
:102BE8005A71774B00229A71754B0022DA710821CD
:102BF800402000F0F1F9714B1B68202B03D06F4B7C
:102C08001B68212B1BD16E4B21221A706C4B0022A2
:102C18005A706B4B00229A70694B0822DA70684B25
:102C2800FC221A71664B80225A71654B00229A71F8
:102C3800634B0022DA710821402000F0CDF95F4B88
:102C48001B68222B03D05D4B1B68232B1BD15C4BCD
:102C580024221A705A4B00225A70594B00229A703B
:102C6800574B0822DA70564BFC221A71544B4022FB
:102C78005A71534B00229A71514B0022DA71082184
:102C8800402000F0A9F94D4B1B683C2B1BD14C4B45
:102C980027221A704A4B00225A70494B00229A7018
:102CA800474BFD22DA70464B00221A71444B8022B2
:102CB8005A71434B00229A71414B0022DA71082164
:102CC800402000F089F93D4B1B683E2B1BD13C4B43
:102CD80013221A703A4B01225A70394B00229A700B
:102CE800374B0022DA70364B00221A71344BFF2220
:102CF8005A71334B00229A71314B0022DA71082144
:102D0800402000F069F92D4B1B68402B02D12D4B58
:102D180018221A80294B1B68482B12D1284B3022C5
:102D28001A70274B02225A70254B00229A70244BA6
:102D38000122DA70224B08221A710521402000F086
:102D48004BF91E4B1B684A2B0FD11D4B30221A70B2
:102D58001B4B01225A701A4B00229A70184B0722FB
:102D6800DA700421102000F037F9144B1B68C82BC7
:102D78001CD9114B1B6803F00303002B16D1002349
:102D8800FB71114B1B78002B03D0FB7943F0110327
:102D9800FB710B4BB0221A70094B14225A70084A67
:102DA800FB7993700321402000F016F9FFF71CFD12
:102DB80000BF0837BD4680BD48020020D81C00204F
:102DC800980200203A000020DD1C002080B400AFEB
:102DD800044B00229A60034B0022DA6000BFBD4614
:102DE80080BC70478002002080B500AF364803F0F1
:102DF8001FFC0346022B64D9344B1B8801339AB25B
:102E0800324B1A80324B1A78324B1B789A4258D080
:102E18002F4B1B781A46304B33F812301A462F4B7B
:102E28001A602B4B1B781A462D4B9B5C1A462B4B72
:102E38001A61274B1B78DB002A4A1A442A4B106870
:102E4800516803C3294B284A24491F4803F021FB32
:102E58000346002B05D0264B1B680133244A136018
:102E68002FE01E4B1B68102B0FD11F4BDB78112B4B
:102E78000BD1204B1B78184601F0C4F81D4B1B786A
:102E8800C3F10103DAB21B4B1A701B4B1B680133E9
:102E9800194A13600E4B1B780133DAB20C4B1A70C7
:102EA8000B4B1B78132B02D9094B00221A70134BBA
:102EB8001B78002B05D0114B1B78013BDAB20F4B66
:102EC8001A7000BF80BD00BFAC1B0020AA03002001
:102ED800C9020020C8020020CC0200208002002085
:102EE800F402002008030020B0030020A002002004
:102EF80050020020781B002054020020CA02002043
:102F080080B584B000AF78600D4B1B6801330C4A64
:102F180013600C4B0C4A0021786803F0BDFB034694
:102F2800FB73FB7B002B06D1084B1B680133074A58
:102F38001360FFF789F900BF1037BD4680BD00BF99
:102F480078020020C0020020A402002074020020A1
:102F580080B582B000AF7860054B1B8801339AB208
:102F6800034B1A80FFF740FF00BF0837BD4680BDFE
:102F78007C02002080B500AF144A0621144803F0F3
:102F8800CDF80346002B01D001F066FB114A002161
:102F98000F4803F0C3F80346002B01D001F05CFB97
:102FA8000C4A01210A4803F0B9F80346002B01D066
:102FB80001F052FB074A0221054803F0AFF8034627
:102FC800002B01D001F048FB00BF80BD092F00088D
:102FD800AC1B0020592F000880B584B000AF034611
:102FE8000A46FB8013467B712E4B1B68002B04D1CD
:102FF80002F0B6FA03462B4A13602B4B1B78FB737F
:10300800FB7B0133FB73FB7B132B01D90023FB7381
:10301800264B1B78FA7B9A4206D1254B1B88013335
:103028009AB2234B1A8030E01F4B1B781946214A6D
:10303800FB8822F811301C4B1B7819461E4A7B79F5
:103048005354194B1B78DB001C4A13441C491A467D
:103058000B4603CB10605160134AFB7B1370194B6E
:103068001B8801339AB2174B1A80174B1B78013310
:10307800DAB2154B1A70144B1A78144B1B789A4213
:1030880003D9114B1A78114B1A70132003F0A9FFBA
:10309800FFF7AAFE132003F096FF00BF1037BD46C6
:1030A80080BD00BF70020020C8020020C9020020B5
:1030B800A8030020CC020020F4020020080300200E
:1030C80098020020AC030020CA020020CB02002096
:1030D80080B582B000AF02F043FA7860094B1B68F4
:1030E800002B09D0074B1B687A689A4204D9054B14
:1030F8001B687A68D31A00E0002318460837BD46D3
:1031080080BD00BF7002002090B58DB000AF0446AE
:10311800084611461A462346FB710346BB800B46F8
:103128007B8013463B800023FB740023FB7797F8D2
:10313800443003F04003002B07D00123FB7797F8B6
:10314800443023F0400387F84430FB791F2B03D920
:1031580097F90730002B01DA002394E1FB79203B33
:10316800FB7197F84430022B0CD1FB798B4A52F84B
:1031780023307B62FB798A4AD35CFB851023BB85AD
:1031880001237B8497F84430042B0DD1FB79854AC1
:1031980052F823307B62FB79834AD35CFB851A2380
:1031A800BB854FF6FD737B8497F84430072B0CD111
:1031B800FB797E4A52F823307B62FB797C4AD35CE8
:1031C800FB853023BB8502237B847A4B00221A803F
:1031D800FB8D0733002B00DA0733DB10BB740023A9
:1031E8007B619FE000233B840023BB615FE03B8C55
:1031F800DB4303F00703012202FA03F3FB73BB7CF2
:103208007A6902FB03F33A8CD20892B213441A4645
:103218007B6A13441A78FB7B1340DBB2002B02D085
:103228003B887B8502E0B7F840307B857B8D1B0AA5
:1032380099B2604B1B881A46C9B25F4B99545D4BD3
:103248001B8801337A8DD1B25B4AD154594B1B8804
:1032580041F26D72934205D8564B1B8802339AB2DD
:10326800544B1A80FB7C002B1BD07B8D1B0A99B218
:10327800504B1B881A46C9B24F4B99544D4B1B886B
:1032880001337A8DD1B24C4AD1544A4B1B8841F252
:103298006D72934205D8474B1B8802339AB2454B4F
:1032A8001A803B8C01333B84BB690133BB61FB8DC6
:1032B800BA699A429BDBFB7F002B30D00023BB61AD
:1032C80029E0FB8D5B003B823A4B1B881A463B8A00
:1032D800D31A384A12881146374AD25C364B5A54A8
:1032E800344B1B885A1C3B8AD21A324B1B88013339
:1032F8003149895C304AD1542E4B1B8841F26D729A
:10330800934205D82B4B1B8802339AB2294B1A805B
:10331800BB690133BB61FB8DBA699A42D1DB7B691A
:1033280001337B61BB8D7A699A42FFF65BAFFB7C08
:10333800002B77D1FB7F002B46D0BA88FB8D134436
:103348009BB2013B9CB2BB8D5B009AB27B88134455
:103358009BB2013B9BB27988B8882246FEF702F9F6
:1033680001220121154804F042FB00224FF40041DC
:10337800134804F03CFB0F4B1A880A230E491148E6
:1033880005F05CF901224FF400410D4804F02FFBD1
:103398007A8CFB8D13449BB275E000BF58E7000898
:1033A800B8E00008B8020108D8E80008380D01089C
:1033B800380401082C1B0020BC030020000C01402D
:1033C80000100140101C0020BA88FB8D13449BB2EA
:1033D800013B9CB27A88BB8D13449BB2013B9BB2E4
:1033E8007988B8882246FEF7BDF8012201212848CD
:1033F80004F0FDFA00224FF40041264804F0F7FAE1
:10340800254B1A880A232549254805F017F9012272
:103418004FF400411F4804F0EAFA7A8CFB8D1344FC
:103428009BB230E0FB8D5B009AB2BB8813449BB221
:10343800013B9CB27A88BB8D13449BB2013B9BB283
:103448007988B8882246FEF78DF8012201211048B4
:1034580004F0CDFA00224FF400410E4804F0C7FAF8
:103468000D4B1A880A230D490D4805F0E7F801228B
:103478004FF40041074804F0BAFAFB8D5B009AB29A
:103488007B8C13449BB218463437BD4690BD00BFB1
:10349800000C0140001001402C1B0020BC03002040
:1034A800101C002090B589B002AFF860084611469C
:1034B8001A4603467B810B463B811346FB8000235B
:1034C800FB821BE0FB68187879893A89FC8897F8B1
:1034D8002C3001933B8D00932346FFF715FE0346DE
:1034E800BB82FA8ABB8A13449BB2FB82FB68013316
:1034F800FB607A89BB8A13449BB27B81FB681B788B
:10350800002BDFD1B7F9163018461C37BD4690BDE1
:1035180080B582B000AF02F023F80346154AA2FB3B
:1035280003239B097B607B68012B02D9124B012284
:103538001A70124B1B780133DAB2104B1A700F4B0A
:103548001B7803F00703DAB20C4B1A700C4B1A788D
:10355800094B1B789A4203D0074B1A78084B1A700C
:10356800054B1B78012B01D100F0A8F900BF0837E3
:10357800BD4680BDD34D6210B8030020BA030020B9
:10358800B903002080B584B002AFFEF763F80020CD
:10359800FEF758FA0320FEF767F944230193002346
:1035A80000934AF6E57328226E212348FFF77AFF35
:1035B800002301934FF6FF7300935A236E221F498D
:1035C8001F48FDF7E6FE002301934FF6FF730093B3
:1035D8007823552219491B48FDF7DBFE0023019388
:1035E8004FF6FF73009396231E2217491748FDF7DD
:1035F800D0FE2823FB800CE0F8884FF4FC631E22E1
:10360800BE21FEF707FB142001F0B4FFFB8803334B
:10361800FB80FB88B3F58C7FEED9642001F0AAFF0C
:103628000B4B00221A700B4B00221A7000F092F814
:1036380000BF0837BD4680BDF8BA00085CCF000857
:1036480000BB000810BB000814BE000824BB00081B
:10365800B8030020B903002080B582B002AF364B12
:103668001A78364B1B789A4262D0334B1B78002B62
:1036780051D04FF478430093EF2340F23F12C72113
:103688000020FDF7B3FD2C4B1B781A462C492D481A
:1036980005F0AAFF022301934FF4784300934AF6FA
:1036A800E573C82200212748FFF7FCFE224B1B7850
:1036B8001A46254B53F82200022301934FF478430E
:1036C80000934AF6E573DC220021FFF7EBFE1A4B64
:1036D8001B780B2B0BD0184B1B78082B07D0164BDD
:1036E8001B78092B03D0144B1B780A2B1CD1174BC2
:1036F8001B781A461649134805F076FF02230193F2
:103708004FF4784300934AF6E573C822B4210D4874
:10371800FFF7C8FE08E000230093EF2340F23F12B2
:10372800C7210020FDF762FD034B1A78034B1A707E
:1037380000BFBD4680BD00BFDC1C0020621B00200E
:10374800D0BC0008301B0020E4BD00084E02002059
:10375800DCBC000880B582B002AF0020FEF772F929
:10376800002301934AF6E573009300230A22454992
:103778004548FDF70EFE002301934AF6E5730093D2
:1037880014230A223F494148FDF703FE0023019311
:103798004AF6E573009328230A223A493C48FDF784
:1037A800F8FD002301934AF6E57300933C230A22AF
:1037B80034493848FDF7EDFD002301934AF6E573D7
:1037C800009350230A222F493348FDF7E2FD0023D6
:1037D80001934AF6E573009364230A2229492F4886
:1037E800FDF7D7FD002301934AF6E573009378238C
:1037F8000A2224492A48FDF7CCFD002301934AF602
:10380800E57300938C230A221E492648FDF7C1FD63
:10381800002301934AF6E5730093A0230A2219496D
:103828002148FDF7B6FD002301934AF6E57300939E
:103838000023B42213491D48FDF7ABFD0023019373
:103848004AF6E57300931423B4220E491848FDF78D
:10385800A0FD002301934AF6E57300932823B422C0
:1038680008491448FDF795FD002301934AF6E573CE
:1038780000933C23B42203490F48FDF78AFD00BF9B
:10388800BD4680BDF8C50008E8BC0008F4BC0008C7
:10389800FCBC000808BD000810BD000818BD0008E1
:1038A80020BD000828BD000830BD000838BD00084C
:1038B80044BD000854BD000860BD00082DE9B04FA4
:1038C80086B006AFAD4B1B78072B00F2A88101A28A
:1038D80052F823F0FD38000873390008053A00084B
:1038E800A53A0008DD3A0008253C00081D3B000801
:1038F800F13B0008A24B1B68A24AA2FB03239B09C9
:103908001A46A149A14805F06FFE0223019300233E
:1039180000934AF6E573002264219C48FFF7C2FD34
:103928009B4B1B681A469B49984805F05DFE02238D
:103938000193002300934AF6E57314226421934807
:10394800FFF7B0FD944B1B881A4694498F4805F041
:103958004BFE02230193002300934AF6E5732822C5
:1039680064218A48FFF79EFD59E18D4B1B881A4652
:103978008C49864805F038FE022301930023009302
:103988004AF6E5733C2264218048FFF78BFD844B9F
:103998005B881A4683497D4805F026FE0223019379
:1039A800002300934AF6E573502264217748FFF715
:1039B80079FD7B4B9B881A467A49744805F014FEBA
:1039C80002230193002300934AF6E57364226421DD
:1039D8006E48FFF767FD724BDB881A4671496B48E2
:1039E80005F002FE02230193002300934AF6E573D3
:1039F800782264216548FFF755FD10E16A4B1B7872
:103A08001A466A49614805F0EFFD02230193002335
:103A180000934AF6E57300224FF48C715B48FFF778
:103A280041FD634B1B781A466049584805F0DCFD98
:103A380002230193002300934AF6E57314224FF4FE
:103A48008C715248FFF72EFD5A4B1B781A4657497E
:103A58004E4805F0C9FD02230193002300934AF65E
:103A6800E57328224FF48C714848FFF71BFD524B31
:103A78001B681846FCF740FD02460B464F49434871
:103A880005F0B2FD04230193002300934AF6E57381
:103A98003C22F0213D48FFF705FDC0E0484B1B786C
:103AA800002B0BD004230193002300934AF6E573FF
:103AB8006422AA214348FFF7F5FCB0E004230193F0
:103AC800002300934AF6E5736422AA213E48FFF7D3
:103AD800E9FCA4E0304B1B8803F48073002B0CD066
:103AE80004230193002300934AF6E5738C2240F2E5
:103AF80021113648FFF7D6FC91E0042301930023F7
:103B080000934AF6E5738C2240F221113048FFF702
:103B1800C9FC84E02F4B1B681846FCF7EDFC824675
:103B28008B462D4B1B681846FCF7E6FC04460D46F1
:103B38002A4B1B681846FCF7DFFC80468946284B51
:103B48001B681846FCF7D8FC02460B46CDE904234F
:103B5800CDE90289CDE9004552465B4621490B482B
:103B680005F042FD02230193002300934AF6E57312
:103B78008C2264210548FFF795FC50E0BA03002029
:103B8800B81C00201F85EB5168BD0008301B0020C1
:103B98007402002070BD00084002002078BD0008B3
:103BA8003802002080BD00083C00002088BD0008C5
:103BB8003D0000204C0200205C02002090BD00085F
:103BC8003E0000209CBD0008ACBD0008B8BD000840
:103BD800BCBD0008641B0020681B00206C1B002073
:103BE800701B0020C0BD000800F03CFD0346002B00
:103BF80011D00D4B1B781A460C490D4805F0F4FC02
:103C080002230193002300934AF6E573C822022198
:103C18000748FFF747FCFFF71FFD00E000BF00BFA4
:103C2800BD46BDE8B08F00BFAC1C0020DCBD00085D
:103C3800301B002080B582B000AF4F4B1B88184660
:103C4800FDF790F803467B604C497868FDF7E2F889
:103C580003467B604A497868FDF790F903467B6024
:103C6800484A7B681360474B1B684FF07E511846E3
:103C7800FCF7C6FF03467B6043497868FDF7CAF83E
:103C8800034642491846FDF779F903461A46404B60
:103C98001A603F4B1B683F491846FDF759FA03461F
:103CA800002B11D03C4B4FF000021A603B4B1B78A5
:103CB8000133DAB2394B1A70384B1B78192B47D9B4
:103CC800374B06221A7043E0314B1B684FF0000156
:103CD8001846FDF73DFA0346002B07D02E4B4FF050
:103CE80000021A602D4B00221A7031E0284B1B6825
:103CF80025491846FDF736FA0346002B07D0244B12
:103D08001B68254A1360254B00221A7020E0204BBF
:103D18001B6824491846FDF725FA0346002B06D0F0
:103D28001D4B194A1A601D4B00221A7010E01B4BDC
:103D38001B780133DAB2194B1A70184B1B78192B00
:103D480002D9174B07221A70134B4FF000021A6062
:103D5800114B1B68144A1360144B1B8803F48073BF
:103D6800002B05D0104B1B6883F000430E4A1360EC
:103D780000BF0837BD4680BD380200203333D3402A
:103D880000F07F45641B00200000C842000040404E
:103D9800681B00200000A0C16C1B0020741B0020C1
:103DA800DC1C00200000F042701B002040020020B4
:103DB80080B483B000AF0346FB71FB79002B0ED0B3
:103DC8000B4B1B78002B0AD10A4B1B78012B03D114
:103DD800084B00221A7002E0064B01221A70044AAE
:103DE800FB79137000BF0C37BD4680BC704700BF1D
:103DF800751B0020761B002080B500AF064B1B7892
:103E0800012B03D1012000F08FF803E0002000F01F
:103E18008BF800BF00BF80BD761B002080B582B044
:103E280000AF0346FB71FB79002B06D001224FF44B
:103E38000051074803F0DBFD05E000224FF4005174
:103E4800034803F0D4FD00BF0837BD4680BD00BF5E
:103E5800000C014080B582B000AF0346FB71FB79CE
:103E6800002B05D001221021064803F0C0FD04E014
:103E780000221021034803F0BAFD00BF0837BD46F1
:103E880080BD00BF000C014080B582B000AF034682
:103E9800FB71FB79002B05D001222021064803F095
:103EA800A6FD04E000222021034803F0A0FD00BF86
:103EB8000837BD4680BD00BF000C014080B582B008
:103EC80000AF0346FB71FB79002B05D0012280214E
:103ED800064803F08CFD04E000228021034803F02B
:103EE80086FD00BF0837BD4680BD00BF000C0140FD
:103EF80080B582B000AF0346FB71FB79002B06D07A
:103F080001224FF48071074803F071FD05E000229B
:103F18004FF48071034803F06AFD00BF0837BD46BF
:103F280080BD00BF000C014080B582B000AF0346E1
:103F3800FB71FB79002B06D001224FF40071074872
:103F480003F055FD05E000224FF40071034803F02B
:103F58004EFD00BF0837BD4680BD00BF000C0140C4
:103F680080B582B000AF0346FB71FB79002B06D009
:103F780001224FF48061074803F039FD05E0002273
:103F88004FF48061034803F032FD00BF0837BD4697
:103F980080BD00BF000C014080B582B000AF034671
:103FA800FB71FB79002B05D001224021064803F064
:103FB8001EFD04E000224021034803F018FD00BF65
:103FC8000837BD4680BD00BF000C014080B582B0F7
:103FD80000AF0346FB71FB79002B06D001224FF49A
:103FE8008071074803F003FD05E000224FF480715B
:103FF800034803F0FCFC00BF0837BD4680BD00BF86
:104008000010014080B582B000AF0346FB71FB7918
:10401800002B06D001224FF40071074803F0E7FC9B
:1040280005E000224FF40071034803F0E0FC00BFF4
:104038000837BD4680BD00BF0010014080B500AF05
:104048001021054803F0BCFC0346002B0CBF0123DC
:104058000023DBB2184680BD0010014080B500AFD8
:104068002021054803F0ACFC0346002B0CBF0123BC
:104078000023DBB2184680BD0010014080B500AFB8
:104088004021054803F09CFC0346002B0CBF01238C
:104098000023DBB2184680BD0010014080B500AF98
:1040A8008021054803F08CFC0346002B0CBF01233C
:1040B8000023DBB2184680BD0010014080B500AF78
:1040C8004FF48071054803F07BFC0346002B0CBFBE
:1040D80001230023DBB2184680BD00BF0008014061
:1040E80080B500AF4FF48041054803F069FC0346F2
:1040F800002B0CBF01230023DBB2184680BD00BF94
:10410800000C014080B500AF4FF40041054803F0B2
:1041180057FC0346002B0CBF01230023DBB21846D3
:1041280080BD00BF000C014080B500AF01210548EB
:1041380003F046FC0346002B0CBF01230023DBB22F
:10414800184680BD0008014080B500AF4FF40071EB
:10415800054803F035FC0346002B0CBF0123002360
:10416800DBB2184680BD00BF0008014080B500AF33
:104178004FF48061054803F023FC0346002B0CBF75
:1041880001230023DBB2184680BD00BF00080140B0
:1041980080B582B000AF01F08BF900F039F800F07B
:1041A80095F900F075F900F091F800F0CDF800F0FD
:1041B80039F9144B9B69134A43F001039361114B7E
:1041C8009B6903F001033B603B680F4B5B687B60B6
:1041D8007B6823F0E0637B607B6843F000737B605F
:1041E800094A7B6853600120FFF718FEFFF7CAF9F8
:1041F800064801F0CDFAFEF7E9FD00F09DFA00F05F
:10420800ADFAFCE700100240000001407C1B0020D2
:1042180080B596B000AF07F1300328220021184678
:1042280004F07AFD07F11C0300221A605A609A60B4
:10423800DA601A613B1D00221A605A609A60DA60DF
:104248001A615A6101233B634FF480337B63002377
:10425800BB6301233B640223FB644FF480333B655B
:104268004FF4E0137B6507F13003184603F0D8FBE1
:104278000346002B01D000F0EFF90F23FB61022366
:104288003B6200237B624FF48063BB624FF4806320
:10429800FB6207F11C030221184603F043FE0346A4
:1042A800002B01D000F0D8F902237B604FF4804343
:1042B800FB603B1D184603F0AFFF0346002B01D0FF
:1042C80000F0CAF900BF5837BD4680BD80B584B03C
:1042D80000AF3B1D00221A605A609A60184B194AB9
:1042E8001A60174B00229A60154B00221A73144B60
:1042F80000221A75124B4FF46022DA61104B00222B
:104308005A600F4B01221A610D4801F057F9034614
:10431800002B01D000F0A0F90A237B600123BB60C9
:104328000023FB603B1D1946054801F01DFC0346B0
:10433800002B01D000F090F900BF1037BD4680BDBA
:104348007C1B00200024014080B58AB000AF334BAD
:10435800334A1A60314B39225A60304B00229A6036
:104368002E4B0022DA602D4B4FF400321A612B4B92
:104378004FF480125A61294B00221A76274B0122EA
:104388005A76264B00229A76244B0122DA76234B62
:1043980000221A77214B00225A77204801F078FD35
:1043A8000346002B01D000F057F90023BB6000231F
:1043B800FB6000233B6100237B610023BB61012379
:1043C800FB6101233B623B461946144801F054FF48
:1043D8000346002B01D000F03FF9FEF7CBFD0F4854
:1043E80002F013F80346002B01D000F035F9022142
:1043F8000A4802F072FA0346002B01D000F02CF9AB
:104408000121064802F069FA0346002B01D000F0AA
:1044180023F900BF2837BD4680BD00BFAC1B002074
:104428000064004080B500AF174B184A1A60164B5D
:104438004FF482725A60144B00229A60124B002289
:10444800DA60114B00221A610F4B00225A610E4BA1
:104458004FF400729A610C4B0022DA610A4B002279
:104468001A62094B00225A62074B00229A62064BD5
:104478000A22DA62044804F05DF80346002B01D0F2
:1044880000F0EAF800BF80BD101C00200030014099
:1044980080B582B000AF0C4B5B690B4A43F0010357
:1044A8005361094B5B6903F001037B607B68002261
:1044B80000210D2002F06BFD0D2002F084FD00BFED
:1044C8000837BD4680BD00BF0010024080B588B0E7
:1044D80000AF07F1100300221A605A609A60DA6090
:1044E800584B9B69574A43F020039361554B9B698E
:1044F80003F02003FB60FB68524B9B69514A43F071
:10450800100393614F4B9B6903F01003BB60BB68BA
:104518004C4B9B694B4A43F004039361494B9B699D
:1045280003F004037B607B68464B9B69454A43F074
:1045380008039361434B9B6903F008033B603B68A6
:10454800002243F6FF71404803F051FA00224FF46D
:1045580098513E4803F04BFA002204213C4803F0EE
:1045680046FA40F201733B6100237B610023BB6183
:1045780007F110031946374803F08EF8F0233B6122
:1045880000237B610023BB6107F1100319462F4804
:1045980003F082F843F6FF733B6101237B6100233C
:1045A800BB610223FB6107F110031946264803F09B
:1045B80073F84FF440433B6100237B610023BB61E8
:1045C80007F110031946204803F066F84FF4985392
:1045D8003B6101237B610023BB610223FB6107F17F
:1045E80010031946194803F057F84FF480633B61EC
:1045F80002237B610323FB6107F11003194613486B
:1046080003F04AF84FF400633B6100237B61002309
:10461800BB6107F1100319460C4803F03DF8042369
:104628003B6101237B610023BB610223FB6107F12E
:1046380010031946064803F02FF800BF2037BD467F
:1046480080BD00BF00100240000C01400010014076
:10465800001401400008014080B400AF72B600BFEA
:10466800FEE7000080B400AF054B1B78002B14BF99
:1046780001230023DBB21846BD4680BC704700BF4B
:10468800AC1C002080B400AF034B16221A7000BF88
:10469800BD4680BC704700BFAC1C002080B500AF91
:1046A800094B1B78002B0CD0074B1B78013BDAB267
:1046B800054B1A70044B1B78002B02D10020FFF722
:1046C800ADFB00BF80BD00BFAC1C002080B500AFB3
:1046D8000120FFF761FCFDF759FB00F09DFEFEF796
:1046E800E7F9FDF7CBFB00F013FA0B4B1B6801331E
:1046F800094A1360084B1B6803F02003002B14BF02
:1047080001230023DBB21846FFF7D8FB0020FFF790
:1047180043FC00BF80BD00BFB81C002080B500AFBF
:10472800FEF7F6FEFFF7BAFF00F0F2FCFFF764FBB6
:10473800FFF780FA00BF80BD80B500AF00F010FF22
:104748000346044A1360034B1B68034A136000BF07
:1047580080BD00BFB01C0020B41C002080B582B012
:1047680000AF134B1B8801339AB2114B1A8000F02B
:10477800F7FE78600F4B1B6814337A689A4206D3A9
:104788000C4B1B6814330B4A1360FFF7C7FF0A4B27
:104798001B6805337A689A4206D3074B1B680533B2
:1047A800054A1360FFF792FF00BF0837BD4680BD7A
:1047B800AE1C0020B01C0020B41C0020000000002B
:1047C800B0B500AF5A4B4FF000021A60594B1B7836
:1047D800012B0CD0574B1B78022B08D0564B1B785B
:1047E800803B1846FCF7C2FA0346514A1360504B07
:1047F8001B684FF080411846FCF7AAFC0346002BC3
:1048080031D04B4B1B684FF040411846FCF7BEFCBB
:104818000346002B27D0474B1B78032B23D0454B4F
:104828001B78062B1FD0434B1B78072B1BD0434B01
:104838001B681846FBF760FE37A3D3E90023FBF794
:10484800B3FE02460B46104619464FF000023C4B99
:10485800FBF7D4FF02460B4610461946FCF77CF9D5
:104868000346334A1360374B1B78002B0AD0304B72
:104878001B684FF081411846FCF780FB03461A4637
:104888002B4B1A60304B1B681846FBF735FE24A3E8
:10489800D3E90023FBF788FE02460B4614461D4663
:1048A800234B1B681846FBF727FE1FA3D3E90023F9
:1048B800FBF77AFE02460B4620462946FBF7BEFC6C
:1048C80002460B4610461946FCF746F903461E4AAF
:1048D80013601D4B1B681D491846FCF757FC03461F
:1048E800002B02D0184B194A1A60174B1B6818493D
:1048F8001846FCF72DFC0346002B02D0124B144A35
:104908001A60114B1B681846FCF74AFC03465AB25A
:10491800104B1A7000BFB0BD0000000000C05F401F
:10492800AE47E17A14AEEF3F7B14AE47E17A843F9D
:10493800C41C0020DC1C0020D61C0020701B00209A
:10494800000059403E000020C01C00200000FE422C
:104958000000FEC2BE1C002080B400AF00BFBD46F0
:1049680080BC704780B500AF0E4B1B780133DAB2BC
:104978000C4B1A700B4B1B7803F00303002B01D070
:10498800012B0DE0084BB0221A70074B0E225A700B
:10499800054B00229A7003211020FEF71DFB00BF73
:1049A80000BF80BDBD1C00209802002080B400AF6D
:1049B800394B1B78103B152B69D801A252F823F00C
:1049C800214A0008974A0008974A0008974A0008B1
:1049D800974A0008974A0008974A0008974A00082B
:1049E800974A0008974A0008974A0008974A00081B
:1049F800974A0008974A0008974A0008974A00080B
:104A0800314A0008614A0008714A0008414A000812
:104A1800974A0008514A0008204B1B78202B2BD1BD
:104A28001D4B20221A7027E01C4B1B78232B25D105
:104A3800194B23221A7021E0194B1B78252B1FD103
:104A4800154B25221A701BE0144B1B78222B19D109
:104A5800114B21221A7015E0114B1B78222B13D110
:104A68000D4B22221A700FE00D4B1B78202B0DD115
:104A7800094B20221A7009E000BF08E000BF06E0D9
:104A880000BF04E000BF02E000BF00E000BF00BFBD
:104A9800BD4680BC704700BF3D0000203C000020A0
:104AA8004C02002080B400AF164B1B78C82B0ED9DF
:104AB800154B1B78632B06D8134B1B780133DAB2DE
:104AC800114B1A7019E0114B00221A7015E00D4BAA
:104AD8001B78312B0ED80C4B1B78632B06D80A4B4E
:104AE8001B780133DAB2084B1A7006E0074B012233
:104AF8001A7002E0044B00221A7000BFBD4680BC49
:104B0800704700BFD51C0020C81C00203E000020B4
:104B180080B500AFFFF7C6FFFFF71EFFFFF750FE97
:104B2800294B1B780133DAB2274B1A70264B1B78B6
:104B380003F00303032B41D0032B42DC002B02D0EC
:104B4800022B2AD03DE0FFF731FF204BB0221A702C
:104B58001E4B01225A701E4B1A781C4B9A701B4B25
:104B68001122DA701B4B1A78184B1A71174B0D2249
:104B78005A71164B00229A71174B1B781846FFF78B
:104B880025FA154B1B78C3F10103DAB2124B1A70E0
:104B980007211020FEF720FA13E00C4BB0221A7000
:104BA8000A4B0B225A700D4B93F90030DAB2074BBF
:104BB8009A7003211020FEF70FFA02E0FFF7D2FEE9
:104BC80000BF00BF80BD00BFBC1C002098020020B1
:104BD8003D0000203C000020771B0020BE1C002068
:104BE80080B483B000AF0E4B9B690D4A43F00103BC
:104BF80093610B4B9B6903F001037B607B68084B57
:104C0800DB69074A43F08053D361054BDB6903F046
:104C180080533B603B6800BF0C37BD4680BC704783
:104C28000010024080B588B000AF786007F110032B
:104C380000221A605A609A60DA607B681B68144A1E
:104C4800934221D1134B9B69124A43F40073936139
:104C5800104B9B6903F40073FB60FB680D4B9B6969
:104C68000C4A43F0100393610A4B9B6903F010034D
:104C7800BB60BB680F233B6103237B6107F1100313
:104C88001946054802F008FD00BF2037BD4680BD23
:104C980000240140001002400010014080B588B097
:104CA80000AF786007F1100300221A605A609A601A
:104CB800DA607B681B68244A934241D1234BDB6945
:104CC800224A43F00073D361204BDB6903F0007381
:104CD800FB60FB681D4B9B691C4A43F0040393610E
:104CE8001A4B9B6903F00403BB60BB684FF4006375
:104CF8003B6100237B610023BB6107F11003194668
:104D0800134802F0C9FC4FF480533B6102237B61D6
:104D18000323FB6107F1100319460D4802F0BCFCA0
:104D280000220021132002F032F9132002F04BF97F
:104D380000220021142002F02AF9142002F043F97D
:104D480000BF2037BD4680BD00640040001002400F
:104D58000008014080B588B000AF786007F1100303
:104D680000221A605A609A60DA607B681B68284AD9
:104D7800934249D1274B9B69264A43F48053936158
:104D8800244B9B6903F48053FB60FB68214B9B69B0
:104D9800204A43F0040393611E4B9B6903F004030C
:104DA800BB60BB68E0233B6102237B610323FB619B
:104DB80007F110031946184802F06EFC174B184A01
:104DC8001A60164B10225A60144B00229A60134B3B
:104DD8008022DA60114B00221A61104B00225A61BE
:104DE8000E4B00229A610D4B0022DA610B4802F04B
:104DF80013F90346002B01D0FFF72EFC7B68074A06
:104E08009A64064A7B68536200BF2037BD4680BD5E
:104E1800003001400010024000080140681C0020DA
:104E28003000024080B400AFFEE780B400AFFEE778
:104E380080B400AFFEE780B400AFFEE780B400AFF7
:104E4800FEE780B400AF00BFBD4680BC704780B4A9
:104E580000AF00BFBD4680BC704780B400AF00BF44
:104E6800BD4680BC704780B500AF00F067FB00BF4F
:104E780080BD000080B500AF024802F0A3F900BF72
:104E880080BD00BF681C002080B500AF024801F05B
:104E980049FD00BF80BD00BFAC1B002080B500AF3E
:104EA800024801F03FFD00BF80BD00BFAC1B0020E1
:104EB80080B400AF01231846BD4680BC704780B55A
:104EC80082B000AF7860396003F0FCFE034616221A
:104ED8001A604FF0FF3318460837BD4680BD80B5CD
:104EE80082B000AF78604FF0FF317868FFF7E7FFD6
:104EF800FEE780B586B000AFF860B9607A6000233D
:104F08007B610AE0AFF300800146BB685A1CBA60B7
:104F1800CAB21A707B6901337B617A697B689A42ED
:104F2800F0DB7B6818461837BD4680BD80B586B073
:104F380000AFF860B9607A6000237B6109E0BB6864
:104F48005A1CBA601B781846AFF300807B6901339E
:104F58007B617A697B689A42F1DB7B68184618376F
:104F6800BD4680BD80B483B000AF78604FF0FF339A
:104F780018460C37BD4680BC704780B483B000AF7C
:104F8800786039603B684FF400525A600023184635
:104F98000C37BD4680BC704780B483B000AF7860E2
:104FA800012318460C37BD4680BC704780B485B0D5
:104FB80000AFF860B9607A60002318461437BD4620
:104FC80080BC704780B586B000AF7860144A154B36
:104FD800D31A7B617B693B61134B1B68002B02D1A1
:104FE800114B124A1A60104B1A687B6813443A69CD
:104FF8009A4207D203F066FE03460C221A604FF06D
:10500800FF3309E0084B1B68FB60074B1A687B6895
:105018001344054A1360FB6818461837BD4680BD1F
:105028000000012000040000CC1C0020F81C002017
:1050380080B400AF00BFBD4680BC704780B483B069
:1050480000AF03460A46FB711346BB71BB79002BC0
:105058001DD0FB79002B1AD0284B1B78132B0FD8A7
:10506800264B1B780133DAB2244B1A70234B1B787A
:10507800142B05D1224B03221A70224B00221A70DE
:10508800214AFB791370214ABB79137032E01B4B1C
:1050980000221A70BB79002B11D01C4B1B78002BF7
:1050A8000DD1174B1B78012B03D1154B00221A7019
:1050B80005E0134B01221A70124B00221A70FB797B
:1050C800002B11D0104B1B78002B0DD10C4B1B78EB
:1050D800022B03D10A4B00221A7005E0084B02226A
:1050E8001A70084B00221A70074AFB791370074A96
:1050F800BB7913700C37BD4680BC7047D41C0020A8
:10510800D21C0020D31C0020D11C0020D01C002061
:1051180080B500AF464B1B780133DAB2444B1A70A6
:10512800434B1B78252B02D9414B00221A70414B67
:105138001B78032B3CD0032B6ADC012B02D0022BFB
:105148001BD065E03A4B1B78122B94BF0123002338
:10515800DBB21846FEF798FE0020FEF77BFE344BC4
:105168001B78122B94BF01230023DBB21846FEF7ED
:10517800BFFE0020FEF7F4FE57E02D4B1B78122BE4
:1051880094BF01230023DBB21846FEF763FE00201C
:10519800FEF77AFE264B1B78122B94BF01230023BF
:1051A800DBB21846FEF7DCFE0020FEF7A1FE3CE06D
:1051B8001F4B1B78212B02D91D4B00221A701C4B48
:1051C8001B78102B94BF01230023DBB21846FEF78F
:1051D80041FE174B1B78102B94BF01230023DBB231
:1051E8001846FEF751FE124B1B78102B94BF012373
:1051F8000023DBB21846FEF77BFE0D4B1B78102B05
:1052080094BF01230023DBB21846FEF7A9FE0CE089
:105218000020FEF739FE0020FEF71CFE0020FEF7F6
:1052280067FE0020FEF79CFE00BF00BF80BD00BFE8
:10523800D31C0020D21C002080B500AF134B1B6884
:10524800322B20D9114B1B68C72B1CD8104B1B784D
:10525800802B02D00F4B01221A700F4B1B78802B2A
:1052680002D00C4B02221A700C4B1B6823F000432F
:105278000B491846FBF78AFF0346002B00D102E0D2
:10528800044B03221A7000BF80BD00BFD81C002049
:10529800D51C0020DC1C0020D61C0020701B002020
:1052A8000000404080B483B000AF3B4BDB88BB803C
:1052B800BB8840F20572934205D8BB88A3F20673F7
:1052C8009BB2FB800CE0BB8840F6FA02934205D9FA
:1052D800BB88A3F6FA039BB2FB8001E00023FB80A6
:1052E800B7F906302D4A82FB03121A44D210DB1795
:1052F800D31AFB80FB8880339BB2FB80B7F906305A
:10530800002B01DC0123FB80B7F90630FF2B01DD00
:10531800FF23FB80FB88DAB2214B1A701E4B9B8857
:105328007B807B8840F20572934205D87B88A3F284
:1053380006739BB2FB800CE07B8840F6FA0293422E
:1053480005D97B88A3F6FA039BB2FB8001E0002312
:10535800FB80B7F90630114A82FB03121A44D210B7
:10536800DB17D31AFB80FB8880339BB2FB80B7F92D
:105378000630002B01DC0123FB80B7F90630FF2B38
:1053880001DDFF23FB80FB88DAB2064B1A7000BFF1
:105398000C37BD4680BC70473802002093244992E0
:1053A800D51C0020D61C002080B500AF164B1B78FA
:1053B8007B2B0BD9144B1B78842B07D8134B1B78EA
:1053C8007B2B03D9114B1B78842B03D9104B4FF43B
:1053D800C8721A800F4B1B6823F000434FF07C51B2
:1053E8001846FBF7D3FE0346002B03D0084B4FF4B7
:1053F800C8721A80064B1B88002B01D0012300E0DD
:105408000023184680BD00BFD61C0020D51C0020F4
:10541800DE1C0020701B002080B500AFFFF70CFFDA
:105428000D4B19680D4BA3FB0123DA0813469B00AB
:1054380013445B00CA1A002A01D1FFF733FF084B57
:105448001B88002B05D0064B1B88013B9AB2044BE6
:105458001A8000BF80BD00BFD81C0020CDCCCCCCAA
:10546800DE1C0020FFF7E4FD0B480C490C4A002322
:1054780002E0D458C4500433C4188C42F9D3094A02
:10548800094C002301E013600432A242FBD303F06D
:105498001FFCFEF77DFE7047000000201C02002064
:1054A800C41201081C020020F41C0020FEE70000C2
:1054B80080B500AF084B1B68074A43F01003136020
:1054C800032001F059FD0F2000F008F8FFF788FBD2
:1054D8000023184680BD00BF0020024080B582B07E
:1054E80000AF7860124B1A68124B1B7819464FF4BC
:1054F8007A73B3FBF1F3B2FBF3F3184601F07FFDC7
:105508000346002B01D001230EE07B680F2B0AD83D
:10551800002279684FF0FF3001F039FD064A7B68B8
:105528001360002300E0012318460837BD4680BDFC
:1055380040000020480000204400002080B400AF54
:10554800054B1B781A46054B1B681344034A136026
:1055580000BFBD4680BC704748000020E01C00200A
:1055680080B400AF024B1B681846BD4680BC70472C
:10557800E01C002080B584B000AF7860FFF7F0FF32
:10558800B8607B68FB60FB68B3F1FF3F05D00A4B4E
:105598001B781A46FB681344FB6000BFFFF7E0FF67
:1055A8000246BB68D31AFA689A42F7D800BF00BF10
:1055B8001037BD4680BD00BF4800002080B586B0CA
:1055C80000AF78600023FB7500233B610023BB60BC
:1055D8000023FB607B68002B01D10123CEE07B68B0
:1055E8009B68002B7B689B6A002B09D17B68002293
:1055F800DA627B68002283F824207868FFF712FBC0
:10560800786800F003FC0346FB757B689B6A03F02F
:105618001003002B40F0A980FB7D002B40F0A580F3
:105628007B689B6A23F4885323F0020343F0020249
:105638007B689A627B685A687B681B6851498B4211
:105648000AD17B68DB69B3F5402F02D07B68DB6940
:1056580004E04FF4002301E07B68DB691A437B68B0
:105668001B7B5B001343BA681343BB607B689B6872
:10567800B3F5807F03D07B689B68012B02D14FF480
:10568800807300E000233A6913433B617B681B7D0C
:10569800012B19D17B681B7B002B09D17B689B6987
:1056A800013B5A033B69134343F400633B610BE03E
:1056B8007B689B6A43F020027B689A627B68DB6A9E
:1056C80043F001027B68DA627B681B685B6823F43D
:1056D80069417B681B683A690A435A607B681B68A2
:1056E8009A68294B13407A681268B9680B4393602B
:1056F8007B689B68B3F5807F03D07B689B68012B30
:1057080004D17B681B69013B1B05FB607B681B6838
:10571800DB6A23F470017B681B68FA680A43DA6263
:105728007B681B689A68194B1340BA689A420BD178
:105738007B680022DA627B689B6A23F0030343F0EC
:1057480001027B689A6218E07B689B6A23F0120367
:1057580043F010027B689A627B68DB6A43F00102BF
:105768007B68DA620123FB7507E07B689B6A43F07C
:1057780010027B689A620123FB75FB7D1846183777
:10578800BD4680BD003C0140FDF7E1FFFE0E1FFF56
:1057980080B584B000AF78600023FB737B6893F812
:1057A8002430012B01D1022398E07B68012283F881
:1057B8002420786800F0D0FA0346FB73FB7B002BAB
:1057C80040F087807B689B6A23F4407323F00103D1
:1057D80043F480727B689A627B681B68414A9342F3
:1057E80005D1414B5B6803F47023002B15D17B680E
:1057F8009B6A23F480127B689A627B681B685B68EB
:1058080003F48063002B26D07B689B6A23F4405303
:1058180043F480527B689A621DE07B689B6A43F47C
:1058280080127B689A627B681B682F4A934204D077
:105838007B681B682B4A93420DD12B4B5B6803F4A2
:105848008063002B07D07B689B6A23F4405343F4A2
:1058580080527B689A627B689B6A03F48053002BB2
:1058680006D07B68DB6A23F006027B68DA6202E016
:105878007B680022DA627B68002283F824207B6838
:105888001B686FF002021A607B681B689B6803F450
:105898006023B3F5602F13D17B681B68114A9342CC
:1058A80005D1114B5B6803F47023002B08D17B688A
:1058B8001B689A687B681B6842F4A0029A600CE037
:1058C8007B681B689A687B681B6842F480129A6040
:1058D80003E07B68002283F82420FB7B18461037FE
:1058E800BD4680BD002801400024014080B584B039
:1058F80000AF78600023FB737B6893F82430012B9A
:1059080001D102231AE07B68012283F824207868F9
:1059180000F07CFA0346FB73FB7B002B09D17B6804
:105928009B6A23F4885323F0010343F001027B6848
:105938009A627B68002283F82420FB7B1846103784
:10594800BD4680BD90B587B000AF78603960002350
:105958007B610023FB6000233B61FFF701FE786158
:105968007B681B689B6803F48073002B0BD07B68F3
:105978009B6A43F020027B689A627B68002283F866
:1059880024200123D3E07B681B685B6803F48073E1
:10599800002B31D17B681B68DB6A03F47003002B92
:1059A8002AD121E03B68B3F1FF3F1DD03B68002BB3
:1059B80007D0FFF7D5FD02467B69D31A3A689A42A9
:1059C80012D27B681B681B6803F00203002B0BD103
:1059D8007B689B6A43F004027B689A627B680022BA
:1059E80083F824200323A2E07B681B681B6803F06C
:1059F8000203002BD6D070E04F4B1C68022002F047
:105A0800C1FC0346B4FBF3F27B681B6819694B4B76
:105A18000B40002B18D17B681B68D968484B0B409A
:105A2800002B11D17B681B681969464B0B40002B72
:105A380008D17B681B68D968434B0B40002B01D108
:105A4800142320E029231EE07B681B6819693D4B5D
:105A58000B40002B06D17B681B68D9683A4B0B407A
:105A6800002B0DD07B681B681969384B0B40002B45
:105A780008D17B681B68D968344B0B40002B01D1D7
:105A8800542300E0FC2302FB03F33B6121E03B6865
:105A9800B3F1FF3F1AD03B68002B07D0FFF760FD3A
:105AA80002467B69D31A3A689A420FD2FB683A6970
:105AB8009A420BD97B689B6A43F004027B689A621E
:105AC8007B68002283F82420032330E0FB6801333D
