:020000040800F2
:1000000000000120E1590008255300082B53000887
:1000100031530008375300083D530008000000002A
:100020000000000000000000000000004353000832
:100030004F530008000000005B530008675300089E
:10004000295A0008295A0008295A0008295A000884
:10005000295A0008295A0008295A0008295A000874
:10006000295A0008295A0008295A0008295A000864
:10007000295A000875530008295A0008295A00080F
:10008000295A0008295A0008295A000889530008EB
:100090009D530008295A0008295A0008295A0008C7
:1000A000295A0008295A0008295A0008295A000824
:1000B000295A0008295A0008295A0008295A000814
:1000C000295A0008295A0008295A0008295A000804
:1000D000295A0008295A0008295A0008295A0008F4
:1000E000295A0008295A0008295A0008295A0008E4
:1000F000295A0008295A0008295A0008295A0008D4
:10010000295A0008295A0008295A0008295A0008C3
:10011000295A0008295A0008295A0008295A0008B3
:10012000295A0008295A0008295A0008295A0008A3
:1001300000000000000000000000000000000000BF
:1001400000000000000000000000000000000000AF
:10015000000000000000000000000000000000009F
:10016000000000000000000000000000000000008F
:10017000000000000000000000000000000000007F
:10018000000000000000000000000000000000006F
:10019000000000000000000000000000000000005F
:1001A000000000000000000000000000000000004F
:1001B000000000000000000000000000000000003F
:1001C000000000000000000000000000000000002F
:1001D000000000000000000000000000000000001F
:0401E0005FF8E0F1F3
:1001E80010B5054C237833B9044B13B10448AFF369
:1001F80000800123237010BD1C02002000000000B5
:1002080058C0000808B5034B1BB103490348AFF3B6
:10021800008008BD000000002002002058C000082F
:10022800034613F8012B002AFBD1181A013870472E
:1002380081F0004102E000BF83F0004330B54FEA8F
:1002480041044FEA430594EA050F08BF90EA020FFC
:100258001FBF54EA000C55EA020C7FEA645C7FEA8F
:10026800655C00F0E2804FEA5454D4EB5555B8BFB2
:100278006D420CDD2C4480EA020281EA030382EA23
:10028800000083EA010180EA020281EA0303362DB5
:1002980088BF30BD11F0004F4FEA01314FF4801C88
:1002A8004CEA113102D0404261EB410113F0004F9A
:1002B8004FEA03334CEA133302D0524263EB430351
:1002C80094EA050F00F0A780A4F10104D5F1200EEF
:1002D8000DDB02FA0EFC22FA05F2801841F100014A
:1002E80003FA0EF2801843FA05F359410EE0A5F11E
:1002F80020050EF1200E012A03FA0EFC28BF4CF04F
:10030800020C43FA05F3C01851EBE37101F0004504
:1003180007D54FF0000EDCF1000C7EEB00006EEB11
:100328000101B1F5801F1BD3B1F5001F0CD349089B
:100338005FEA30004FEA3C0C04F101044FEA4452F2
:1003480012F5800F80F09A80BCF1004F08BF5FEA79
:10035800500C50F1000041EB045141EA050130BD59
:100368005FEA4C0C404141EB0101013C28BFB1F56B
:10037800801FE9D291F0000F04BF01460020B1FAB6
:1003880081F308BF2033A3F10B03B3F120020CDA89
:100398000C3208DD02F1140CC2F10C0201FA0CF067
:1003A80021FA02F10CE002F11402D8BFC2F1200CCC
:1003B80001FA02F120FA0CFCDCBF41EA0C01904082
:1003C800E41AA2BF01EB0451294330BD6FEA0404CB
:1003D8001F3C1CDA0C340EDC04F11404C4F12002B6
:1003E80020FA04F001FA02F340EA030021FA04F3C8
:1003F80045EA030130BDC4F10C04C4F1200220FA1F
:1004080002F001FA04F340EA0300294630BD21FA5C
:1004180004F0294630BD94F0000F83F4801306BF22
:1004280081F480110134013D4EE77FEA645C18BF16
:100438007FEA655C29D094EA050F08BF90EA020FAD
:1004480005D054EA000C04BF1946104630BD91EAA5
:10045800030F1EBF0021002030BD5FEA545C05D1A8
:100468004000494128BF41F0004130BD14F58004E7
:100478003CBF01F5801130BD01F0004545F0FE415B
:1004880041F470014FF0000030BD7FEA645C1ABF90
:10049800194610467FEA655C1CBF0B46024650EAC7
:1004A800013406BF52EA033591EA030F41F40021F3
:1004B80030BD00BF90F0000F04BF0021704730B579
:1004C8004FF4806404F132044FF000054FF000014E
:1004D80050E700BF90F0000F04BF0021704730B50F
:1004E8004FF4806404F1320410F0004548BF4042E4
:1004F8004FF000013EE700BF42004FEAE2014FEA39
:1005080031014FEA02701FBF12F07F4393F07F4F13
:1005180081F06051704732F07F4208BF704793F016
:100528007F4F04BF41F40021704730B54FF4607429
:1005380001F0004521F000411CE700BF50EA01022C
:1005480008BF704730B54FF000050AE050EA0102D5
:1005580008BF704730B511F0004502D5404261EB45
:1005680041014FF4806404F132045FEA915C3FF486
:10057800D8AE4FF003025FEADC0C18BF03325FEA23
:10058800DC0C18BF033202EBDC02C2F1200300FAD4
:1005980003FC20FA02F001FA03FE40EA0E0021FAF9
:1005A80002F11444BDE600BF70B54FF0FF0C4CF4E7
:1005B800E06C1CEA11541DBF1CEA135594EA0C0F99
:1005C80095EA0C0F00F0DEF82C4481EA030621EAD4
:1005D8004C5123EA4C5350EA013518BF52EA03350F
:1005E80041F4801143F4801338D0A0FB02CE4FF0C1
:1005F8000005E1FB02E506F00042E0FB03E54FF0F1
:100608000006E1FB03569CF0000F18BF4EF0010EE8
:10061800A4F1FF04B6F5007F64F5407404D25FEAE4
:100628004E0E6D4146EB060642EAC62141EA555197
:100638004FEAC52040EA5E504FEACE2EB4F1FD0CD9
:1006480088BFBCF5E06F1ED8BEF1004F08BF5FEA57
:10065800500E50F1000041EB045170BD06F0004609
:1006680046EA010140EA020081EA0301B4EB5C04B6
:10067800C2BFD4EB0C0541EA045170BD41F48011AE
:100688004FF0000E013C00F3AB8014F1360FDEBFD3
:10069800002001F0004170BDC4F10004203C35DAAF
:1006A8000C341BDC04F11404C4F1200500FA05F332
:1006B80020FA04F001FA05F240EA020001F00042D3
:1006C80021F0004110EBD37021FA04F642EB060149
:1006D8005EEA430E08BF20EAD37070BDC4F10C0473
:1006E800C4F1200500FA04F320FA05F001FA04F237
:1006F80040EA020001F0004110EBD37041F1000123
:100708005EEA430E08BF20EAD37070BDC4F120052D
:1007180000FA05F24EEA020E20FA04F301FA05F295
:1007280043EA020321FA04F001F0004121FA04F23D
:1007380020EA020000EBD3705EEA430E08BF20EA0D
:10074800D37070BD94F0000F0FD101F00046400047
:1007580041EB010111F4801F08BF013CF7D041EAC9
:10076800060195F0000F18BF704703F000465200CD
:1007780043EB030313F4801F08BF013DF7D043EA9E
:100788000603704794EA0C0F0CEA135518BF95EA54
:100798000C0F0CD050EA410618BF52EA4306D1D1DB
:1007A80081EA030101F000414FF0000070BD50EAFA
:1007B800410606BF1046194652EA430619D094EA84
:1007C8000C0F02D150EA013613D195EA0C0F05D16E
:1007D80052EA03361CBF104619460AD181EA0301C2
:1007E80001F0004141F0FE4141F470014FF000007A
:1007F80070BD41F0FE4141F4780170BD70B54FF015
:10080800FF0C4CF4E06C1CEA11541DBF1CEA135594
:1008180094EA0C0F95EA0C0F00F0A7F8A4EB050476
:1008280081EA030E52EA03354FEA013100F088806D
:100838004FEA03334FF0805545EA131343EA126336
:100848004FEA022245EA111545EA10654FEA0026EB
:100858000EF000419D4208BF964244F1FD0404F5A4
:10086800407402D25B084FEA3202B61A65EB030500
:100878005B084FEA32024FF480104FF4002CB6EBBD
:10088800020E75EB030E22BFB61A754640EA0C003D
:100898005B084FEA3202B6EB020E75EB030E22BF7D
:1008A800B61A754640EA5C005B084FEA3202B6EBBE
:1008B800020E75EB030E22BFB61A754640EA9C007D
:1008C8005B084FEA3202B6EB020E75EB030E22BF4D
:1008D800B61A754640EADC0055EA060E18D04FEA0B
:1008E800051545EA16754FEA06164FEAC30343EAAB
:1008F80052734FEAC2025FEA1C1CC0D111F4801F78
:100908000BD141EA00014FF000004FF0004CB6E770
:1009180011F4801F04BF01430020B4F1FD0C88BF0F
:10092800BCF5E06F3FF6AFAEB5EB030C04BFB6EB1A
:10093800020C5FEA500C50F1000041EB045170BD0D
:100948000EF0004E4EEA113114EB5C04C2BFD4EB3A
:100958000C0541EA045170BD41F480114FF0000EBE
:10096800013C90E645EA060E8DE60CEA135594EA3A
:100978000C0F08BF95EA0C0F3FF43BAF94EA0C0F3D
:100988000AD150EA01347FF434AF95EA0C0F7FF4B2
:1009980025AF104619462CE795EA0C0F06D152EA06
:1009A80003353FF4FDAE1046194622E750EA4106EA
:1009B80018BF52EA43067FF4C5AE50EA41047FF4FB
:1009C8000DAF52EA43057FF4EBAE12E74FF0FF3C60
:1009D80006E000BF4FF0010C02E000BF4FF0010C31
:1009E8004DF804CD4FEA410C7FEA6C5C4FEA430CAA
:1009F80018BF7FEA6C5C1BD001B050EA410C0CBFF9
:100A080052EA430C91EA030F02BF90EA020F00205A
:100A1800704710F1000F91EA030F58BF994208BFC1
:100A280090422CBFD8176FEAE37040F0010070477E
:100A38004FEA410C7FEA6C5C02D150EA013C07D1D5
:100A48004FEA430C7FEA6C5CD6D152EA033CD3D020
:100A58005DF8040B704700BF8446104662468C461A
:100A68001946634600E000BF01B5FFF7B7FF00284D
:100A780048BF10F1000F01BD4DF808EDFFF7F4FF76
:100A88000CBF012000205DF808FB00BF4DF808ED01
:100A9800FFF7EAFF34BF012000205DF808FB00BF24
:100AA8004DF808EDFFF7E0FF94BF012000205DF846
:100AB80008FB00BF4DF808EDFFF7CEFF94BF0120FB
:100AC80000205DF808FB00BF4DF808EDFFF7C4FFF4
:100AD80034BF012000205DF808FB00BF4FEA410C3D
:100AE8007FEA6C5C02D150EA013C0AD14FEA430C20
:100AF8007FEA6C5C02D152EA033C02D14FF000005D
:100B080070474FF0010070474FEA410212F500129A
:100B180015D211D56FF47873B3EB625212D94FEA3C
:100B2800C12343F0004343EA505311F0004F23FA26
:100B380002F018BF404270474FF00000704750EA7B
:100B4800013005D111F0004008BF6FF00040704738
:100B58004FF00000704700BF4FEA4102B2F1E04396
:100B680024BFB3F5001CDCF1FE5C0DD901F0004C8C
:100B78004FEAC0024CEA5070B2F1004F40EB8300DC
:100B880008BF20F00100704711F0804F21D113F108
:100B98003872BCBF01F00040704741F480114FEA41
:100BA8005252C2F11802C2F1200C10FA0CF320FACA
:100BB80002F018BF40F001004FEAC1234FEAD323E7
:100BC80003FA0CFC40EA0C0023FA02F34FEA430351
:100BD800CCE77FEA625307D150EA01331EBF4FF0DA
:100BE800FE4040F44000704701F0004040F0FE40F5
:100BF80040F40000704700BF80F0004002E000BFF2
:100C080081F0004142001FBF5FEA410392EA030FEF
:100C18007FEA226C7FEA236C6AD04FEA1262D2EB39
:100C28001363C1BFD218414048404140B8BF5B423E
:100C3800192B88BF704710F0004F40F4000020F0D7
:100C48007F4018BF404211F0004F41F4000121F0ED
:100C58007F4118BF494292EA030F3FD0A2F1010237
:100C680041FA03FC10EB0C00C3F1200301FA03F175
:100C780000F0004302D5494260EB4000B0F5000F98
:100C880013D3B0F1807F06D340084FEA310102F157
:100C98000102FE2A51D2B1F1004F40EBC25008BF09
:100CA80020F0010040EA03007047490040EB0000D3
:100CB800013A28BFB0F5000FEDD2B0FA80FCACF1D4
:100CC800080CB2EB0C0200FA0CF0AABF00EBC25001
:100CD80052421843BCBFD0401843704792F0000FEF
:100CE80081F4000106BF80F400000132013BB5E742
:100CF8004FEA41037FEA226C18BF7FEA236C21D0B8
:100D080092EA030F04D092F0000F08BF084670471C
:100D180090EA010F1CBF0020704712F07F4F04D1EA
:100D2800400028BF40F00040704712F100723CBFFD
:100D380000F50000704700F0004343F0FE4040F427
:100D4800000070477FEA226216BF08467FEA2363E5
:100D58000146420206BF5FEA412390EA010F40F4D0
:100D6800800070474FF0000304E000BF10F000431C
:100D780048BF40425FEA000C08BF704743F0964303
:100D880001464FF000001CE050EA010208BF70471E
:100D98004FF000030AE000BF50EA010208BF7047A5
:100DA80011F0004302D5404261EB41015FEA010CBA
:100DB80002BF84460146002043F0B64308BFA3F1B2
:100DC8008053A3F50003BCFA8CF2083AA3EBC25394
:100DD80010DB01FA02FC634400FA02FCC2F12002B3
:100DE800BCF1004F20FA02F243EB020008BF20F0EA
:100DF8000100704702F1200201FA02FCC2F1200250
:100E080050EA4C0021FA02F243EB020008BF20EA44
:100E1800DC7070474FF0FF0C1CEAD0521EBF1CEA72
:100E2800D15392EA0C0F93EA0C0F6FD01A4480EA60
:100E3800010C400218BF5FEA41211ED04FF0006349
:100E480043EA501043EA5111A0FB01310CF0004075
:100E5800B1F5000F3EBF490041EAD3715B0040EA9B
:100E6800010062F17F02FD2A1DD8B3F1004F40EB6B
:100E7800C25008BF20F00100704790F0000F0CF03E
:100E8800004C08BF49024CEA502040EA51207F3A02
:100E9800C2BFD2F1FF0340EAC250704740F40000DD
:100EA8004FF00003013A5DDC12F1190FDCBF00F0CE
:100EB80000407047C2F10002410021FA02F1C2F17C
:100EC800200200FA02FC5FEA310040F1000053EA18
:100ED8004C0308BF20EADC70704792F0000F00F066
:100EE800004C02BF400010F4000F013AF9D040EA6C
:100EF8000C0093F0000F01F0004C02BF490011F400
:100F0800000F013BF9D041EA0C018FE70CEAD153FD
:100F180092EA0C0F18BF93EA0C0F0AD030F0004C7D
:100F280018BF31F0004CD8D180EA010000F0004031
:100F3800704790F0000F17BF90F0004F084691F0EF
:100F4800000F91F0004F14D092EA0C0F01D1420229
:100F58000FD193EA0C0F03D14B0218BF084608D1F2
:100F680080EA010000F0004040F0FE4040F400003C
:100F7800704740F0FE4040F4400070474FF0FF0CCF
:100F88001CEAD0521EBF1CEAD15392EA0C0F93EA16
:100F98000C0F69D0A2EB030280EA010C49024FEA68
:100FA800402037D04FF0805343EA111143EA101321
:100FB8000CF000408B4238BF5B0042F17D024FF4D9
:100FC800000C8B4224BF5B1A40EA0C00B3EB510FB4
:100FD80024BFA3EB510340EA5C00B3EB910F24BF9D
:100FE800A3EB910340EA9C00B3EBD10F24BFA3EB22
:100FF800D10340EADC001B0118BF5FEA1C1CE0D1EA
:10100800FD2A3FF650AF8B4240EBC25008BF20F09C
:10101800010070470CF0004C4CEA50207F32C2BFF0
:10102800D2F1FF0340EAC250704740F400004FF08D
:101038000003013A37E792F0000F00F0004C02BFBE
:10104800400010F4000F013AF9D040EA0C0093F088
:10105800000F01F0004C02BF490011F4000F013BE2
:10106800F9D041EA0C0195E70CEAD15392EA0C0F4A
:1010780008D142027FF47DAF93EA0C0F7FF470AF82
:10108800084676E793EA0C0F04D14B023FF44CAFC5
:1010980008466EE730F0004C18BF31F0004CCAD15A
:1010A80030F000427FF45CAF31F000437FF43CAF96
:1010B8005FE700BF4FF0FF3C06E000BF4FF0010CB8
:1010C80002E000BF4FF0010C4DF804CD4FEA40029A
:1010D8004FEA41037FEA226C18BF7FEA236C11D0E4
:1010E80001B052EA530C18BF90EA010F58BFB2EB97
:1010F800030088BFC81738BF6FEAE17018BF40F017
:10110800010070477FEA226C02D15FEA402C05D1CA
:101118007FEA236CE4D15FEA412CE1D05DF8040B4F
:10112800704700BF844608466146FFE70FB5FFF7E2
:10113800C9FF002848BF10F1000F0FBD4DF808ED9A
:10114800FFF7F4FF0CBF012000205DF808FB00BF8B
:101158004DF808EDFFF7EAFF34BF012000205DF8E5
:1011680008FB00BF4DF808EDFFF7E0FF94BF012032
:1011780000205DF808FB00BF4DF808EDFFF7D2FF2F
:1011880094BF012000205DF808FB00BF4DF808ED72
:10119800FFF7C8FF34BF012000205DF808FB00BF3F
:1011A8004FEA4002B2F1FE4F0FD34FF09E03B3EB6C
:1011B80012620DD94FEA002343F0004310F0004FAC
:1011C80023FA02F018BF404270474FF00000704702
:1011D80012F1610F01D1420205D110F0004008BFA1
:1011E8006FF0004070474FF00000704790B589B02D
:1011F80002AF0446084611461A462346FB800346BA
:10120800BB800B467B8013463B800023FB82002378
:10121800BB820023FB740023BB740023BB60002344
:101228003B820023FB817A88FB88D31ABB60BB68AA
:10123800002B01DA0123FB740023BB603A88BB88CA
:10124800D31ABB60BB68002B01DA0123BB74FB7C9B
:10125800002B06D17A88FB88D31AFB82FB883B8255
:1012680005E0FA887B88D31AFB827B883B82BB7CAB
:10127800002B06D13A88BB88D31ABB82BB88FB8176
:1012880005E0BA883B88D31ABB823B88FB81BC8ABD
:10129800FA8AF989388A3B8D0093234600F05EFC70
:1012A80000BF1C37BD4690BD90B58DB002AFB96088
:1012B80011461A460346FB730B46BB811346FB8057
:1012C800FB7B1E2B61D997F90F30002B5DDBBB68C8
:1012D8001B78FB77BB685B78BB77BB689B787B77B1
:1012E800BB68DB783B77FB7B203BFA7F02FB03F391
:1012F8000433BA681344BB61BB7F9AB27B7F9CB24C
:10130800F988B889BB8F0093234600F027FC002397
:101318007B6235E000233B622BE03B7F3A6A03FBAC
:1013280002F27B6ADB1003F01F0313440133BA692E
:1013380013441B78FB757B6A03F00703012202FA4A
:1013480003F3BB75FA7DBB7D1340DBB2002B0DD0D8
:101358003B6A9AB2BB89134498B27B6A9AB2FB88FB
:1013680013449BB23A8F194600F092FB3B6A013353
:101378003B62BB7F3A6A9A42CFDB7B6A01337B626E
:101388007B7F7A6A9A42C5DB00E000BF2C37BD46F6
:1013980090BD80B58AB002AFF860B96011461A46B0
:1013A8000B46FB801346BB80BB681B78FB77BB688A
:1013B8005B78BB772DE0FB681878B988FA88BB8D15
:1013C80001933B8D00930B46B968FFF76DFFFB68EF
:1013D8001B78203BFA7F02FB03F30433BA681344FB
:1013E800BB61BB691B78FB75FB7D9A1CBB7F9A426E
:1013F80007DAFB7D9AB2FB8813449BB20233FB8069
:1014080004E0BB7F9AB2FB881344FB80FB6801337E
:10141800FB60FB681B78002BCDD100BF00BF2037D5
:10142800BD4680BD80B582B000AF78607B68064A53
:10143800934205D101224FF40041044806F091FD82
:1014480000BF0837BD4680BD101C002000100140B9
:1014580080B582B000AF0346FB7100BF084B1B6824
:101468009B6803F00203022BF8D1FB1D01221946E9
:10147800034807F0E1FC00BF0837BD4680BD00BF48
:10148800101C002080B582B000AF78600B467B80CE
:1014980000BF084B1B689B6803F00203022BF8D1BE
:1014A8007B881A467968034807F0C6FC00BF0837EE
:1014B800BD4680BD101C002080B582B000AF034639
:1014C800FB7100220121084806F04BFD00224FF471
:1014D8000041064806F045FDFB791846FFF7B8FFBE
:1014E80000BF0837BD4680BD000C01400010014018
:1014F80080B582B000AF0346FB7101220121084884
:1015080006F02FFD00224FF40041064806F029FDA1
:10151800FB791846FFF79CFF00BF0837BD4680BD22
:10152800000C01400010014080B582B000AF786027
:101538000B467B8001220121084806F012FD00229B
:101548004FF40041064806F00CFD7B881946786880
:10155800FFF798FF00BF0837BD4680BD000C01406B
:101568000010014090B585B000AF0446084611460A
:101578001A462346FB800346BB800B467B801346F6
:101588003B80FB881B0A9BB2DBB23B73FB88DBB258
:101598007B737B881B0A9BB2DBB2BB737B88DBB295
:1015A800FB732A20FFF788FF07F10C030421184674
:1015B800FFF7BAFFBB881B0A9BB2DBB23B73BB8841
:1015C800DBB27B733B881B0A9BB2DBB2BB733B88E5
:1015D800DBB2FB732B20FFF76FFF07F10C0304212D
:1015E8001846FFF7A1FF2C20FFF766FF00BF14374E
:1015F800BD4690BD80B500AF002202210D4806F01F
:10160800B0FC0A2004F070FA00224FF400410A48A6
:1016180006F0A7FC0A2004F067FA01220221054817
:1016280006F09FFC01224FF40041034806F099FCA4
:1016380000BF80BD000C01400010014080B500AF24
:1016480001220221024806F08CFC00BF80BD00BFC9
:10165800000C014080B500AFFFF7F0FFFFF7CAFFAD
:101668000120FFF729FF0A2004F03EFACB20FFF7FC
:1016780023FF3920FFF73CFF2C20FFF739FF00201C
:10168800FFF736FF3420FFF733FF0220FFF730FF64
:10169800CF20FFF711FF0020FFF72AFFC120FFF737
:1016A80027FF3020FFF724FFE820FFF705FF8520FC
:1016B800FFF71EFF0020FFF71BFF7820FFF718FF3A
:1016C800EA20FFF7F9FE0020FFF712FF0020FFF7DE
:1016D8000FFFED20FFF7F0FE6420FFF709FF03205E
:1016E800FFF706FF1220FFF703FF8120FFF700FF37
:1016F800F720FFF7E1FE2020FFF7FAFEC020FFF7F2
:10170800DBFE2320FFF7F4FEC120FFF7D5FE1020F3
:10171800FFF7EEFEC520FFF7CFFE3E20FFF7E8FEFD
:101728002820FFF7E5FEC720FFF7C6FE8620FFF753
:10173800DFFE3620FFF7C0FE4820FFF7D9FE3A202B
:10174800FFF7BAFE5520FFF7D3FEB120FFF7B4FE2E
:101758000020FFF7CDFE1820FFF7CAFEB620FFF7DE
:10176800ABFE0820FFF7C4FE8220FFF7C1FE27204A
:10177800FFF7BEFEF220FFF79FFE0020FFF7B8FE3E
:101788002620FFF799FE0120FFF7B2FEE020FFF7C1
:1017980093FE0F20FFF7ACFE3120FFF7A9FE2B20A8
:1017A800FFF7A6FE0C20FFF7A3FE0E20FFF7A0FE12
:1017B8000820FFF79DFE4E20FFF79AFEF120FFF765
:1017C80097FE3720FFF794FE0720FFF791FE1020C1
:1017D800FFF78EFE0320FFF78BFE0E20FFF788FE33
:1017E8000920FFF785FE0020FFF782FEE120FFF7C2
:1017F80063FE0020FFF77CFE0E20FFF779FE142021
:10180800FFF776FE0320FFF773FE1120FFF770FE47
:101818000720FFF76DFE3120FFF76AFEC120FFF7B2
:1018280067FE4820FFF764FE0820FFF761FE0F20DF
:10183800FFF75EFE0C20FFF75BFE3120FFF758FE36
:101848003620FFF755FE0F20FFF752FE1120FFF755
:1018580033FE642004F048F92920FFF72DFE00200C
:1018680000F002F800BF80BD80B582B000AF03462B
:10187800FB713620FFF720FE012004F035F9FB79D3
:10188800032B37D801A252F823F000BFA51800088F
:10189800BB180008D1180008E71800084820FFF70F
:1018A80027FE174BF0221A80164B4FF4A0721A80AD
:1018B80021E02820FFF71CFE114B4FF4A0721A807C
:1018C800104BF0221A8016E08820FFF711FE0C4B0F
:1018D800F0221A800B4B4FF4A0721A800BE0E8201C
:1018E800FFF706FE064B4FF4A0721A80054BF02254
:1018F8001A8000E000BF00BF0837BD4680BD00BFAA
:1019080002000020000000202DE9F0438DB000AF58
:1019180003463960FB806B461E4600237B623B68AA
:101928005B00B3F5FA7F02D23B687B6202E04FF4BA
:10193800FA737B62012201213F4806F012FB002264
:101948004FF400413D4806F00CFBFB881B0A9BB294
:1019580087F82330796A0B46013BFB6100238846F0
:1019680099464FF000024FF000034FEAC90343EADB
:1019780058734FEAC80200230C461D464FF0000278
:101988004FF00003EB0043EA5473E200CB1DDB0881
:10199800DB00ADEB030D6B460033BB610023BB627C
:1019A8000EE0BA69BB6A134497F823201A70BB6A21
:1019B8000133FA88D1B2BA69D154BB6A0233BB6227
:1019C800BA6A7B6A9A42ECD33B685B007B617A69AE
:1019D8007B6AB2FBF3F33B617B697A6AB3FBF2F291
:1019E800796A01FB02F29B1AFB603B69002B10D05D
:1019F8000023FB6209E07B6A9AB20A23B96910489E
:101A080007F0D6F8FB6A0133FB62FA6A3B699A422F
:101A1800F1D3FB689AB20A23B969094807F0C8F8F4
:101A280001224FF40041054806F09BFAB54600BF75
:101A38003437BD46BDE8F083000C0140001001407A
:101A4800101C002080B582B000AF0346FB800E4B0F
:101A58001B889AB20D4B1B889BB200210020FFF710
:101A680081FD094B1B889BB21A46084B1B889BB209
:101A780002FB03F31A46FB8811461846FFF744FF9A
:101A880000BF0837BD4680BD0200002000000020CE
:101A980080B586B000AF0346FB800B46BB8013467B
:101AA8007B802C4B1B889BB2FA889A424DD22A4BDA
:101AB8001B889BB2BA889A4247D2FB881B0A9BB202
:101AC800DBB23B75FB88DBB27B75FB8801331B12ED
:101AD800DBB2BB75FB88DBB20133DBB2FB75BB88BD
:101AE8001B0A9BB2DBB23B74BB88DBB27B74BB883E
:101AF80001331B12DBB2BB74BB88DBB20133DBB230
:101B0800FB747B881B0A9BB2DBB23B737B88DBB21E
:101B18007B732A20FFF7D0FC07F114030421184631
:101B2800FFF702FD2B20FFF7C7FC07F11003042184
:101B38001846FFF7F9FC2C20FFF7BEFC07F10C0351
:101B480002211846FFF7F0FC00E000BF1837BD4639
:101B580080BD00BF020000200000002090B583B0C7
:101B680000AF0446084611461A462346FB80034642
:101B7800BB800B467B8013463B80244B1B889BB263
:101B8800FA889A423DD2224B1B889BB2BA889A4265
:101B980037D2FA887B8813441C4A128892B293423F
:101BA80005DD1A4B1B889AB2FB88D31A7B80BA884A
:101BB8003B881344164A128892B2934205DD144BAF
:101BC8001B889AB2BB88D31A3B80FA887B88134457
:101BD8009BB2013B9CB2BA883B8813449BB2013B41
:101BE8009BB2B988F8882246FFF7BCFC3B887A8804
:101BF80002FB03F31A463B8B11461846FFF784FE97
:101C080000E000BF0C37BD4690BD00BF02000020B9
:101C18000000002090B583B000AF04460846114686
:101C28001A462346FB800346BB800B467B8013463F
:101C38003B80184B1B889BB2FA889A4225D2164BD8
:101C48001B889BB2BA889A421FD2BA887B881344F1
:101C5800114A128892B2934205DD0F4B1B889AB243
:101C6800BB88D31A7B80BA887B8813449BB2013B1C
:101C78009BB2FA88B988F888FFF774FC7A883B88A1
:101C880011461846FFF740FE00E000BF0C37BD467E
:101C980090BD00BF020000200000002080B584B085
:101CA80000AF3B1D00221A605A609A600A237B60CD
:101CB8000123BB600323FB603B1D1946054804F064
:101CC8000DFA0346002B01D002F044FF00BF103785
:101CD800BD4680BD7C1B002080B584B000AF3B1D95
:101CE80000221A605A609A600B237B600123BB6054
:101CF8000323FB603B1D1946054804F0EFF9034632
:101D0800002B01D002F026FF00BF1037BD4680BD72
:101D18007C1B002080B584B000AF3B1D00221A60F8
:101D28005A609A600C237B600123BB600323FB602D
:101D38003B1D1946054804F0D1F90346002B01D094
:101D480002F008FF00BF1037BD4680BD7C1B002095
:101D580080B584B000AF3B1D00221A605A609A60BB
:101D68000D237B600123BB600323FB603B1D1946E9
:101D7800054804F0B3F90346002B01D002F0EAFE4F
:101D880000BF1037BD4680BD7C1B002080B500AF6A
:101D9800FFF784FF274803F0B5FF4FF47A71254811
:101DA80004F08AF8234804F08DF903469AB2224BCE
:101DB8001A80204804F054F8FFF78EFF1D4803F0FE
:101DC800A1FF4FF47A711B4804F076F8194804F023
:101DD80079F903469AB2184B5A80164804F040F82D
:101DE800FFF798FF134803F08DFF4FF47A711148FD
:101DF80004F062F80F4804F065F903469AB20E4BF6
:101E08009A800C4804F02CF8FFF7A2FF094803F069
:101E180079FF4FF47A71074804F04EF8054804F04A
:101E280051F903469AB2044BDA80024804F018F8D4
:101E380000BF80BD7C1B00203802002080B500AFA9
:101E48000C4B1B8803F00103002B0DD00A4B1B78A9
:101E5800312B06D8084B1B780133DAB2064B1A70BF
:101E680005E002F08DFE02E0034B00221A7000BF6D
:101E780080BD00BF400200204402002080B500AFB2
:101E8800504B00221A8002F097FB0346002B06D025
:101E98004C4B1B8843F008039AB24A4B1A8002F055
:101EA8009DFB0346002B06D0464B1B8843F01003CE
:101EB8009AB2444B1A8002F0A3FB0346002B06D0CB
:101EC800404B1B8843F004039AB23E4B1A8002F041
:101ED800A9FB0346002B06D03A4B1B8843F00203AC
:101EE8009AB2384B1A8002F0ADFB0346002B06D09D
:101EF800344B1B8843F020039AB2324B1A8002F00D
:101F0800B3FB0346002B06D02E4B1B8843F001037E
:101F18009AB22C4B1A8002F00FFB0346002B06D016
:101F2800284B1B8843F480739AB2264B1A8002F020
:101F380013FB0346002B06D0224B1B8843F4007387
:101F48009AB2204B1A8002F017FB0346002B06D0EA
:101F58001C4B1B8843F480639AB21A4B1A8002F018
:101F68001BFB0346002B06D0164B1B8843F400636B
:101F78009AB2144B1A80144B1B8803F00403002BED
:101F8800104B1B88DBB203F00203DAB20D4B1B883F
:101F9800DBB203F00803DBB21946104603F0EEFA91
:101FA800084B1B88DBB203F00403DBB2184602F0CF
:101FB8007DF9FFF743FF034B1A88034B1A8000BFD4
:101FC80080BD00BF40020020420200200000000047
:101FD80080B500AF364B1B781846FEF7C3FE0346A4
:101FE8001846FEF789FA2CA3D3E90023FEF724F953
:101FF80002460B461046194629A3D3E90023FEF7EB
:10200800D3FA02460B46104619464FF00002294BF8
:10201800FEF7F4FB02460B461046194622A3D3E905
:102028000023FEF70BF902460B4610461946FEF749
:1020380093FD0346204A13601F4B1B681F4918462F
:10204800FFF79AF80346002B14D01D4B00221A7094
:102058001C4B1B780133DAB21A4B1A70194B1B78D8
:10206800142B17D9184B1B78052B13D1164B0022AC
:102078001A700FE0124B1B780133DAB2104B1A704A
:10208800104B00221A700E4B1B78142B02D90E4BE2
:1020980005221A7000BF80BD0000000000C0624029
:1020A800CCCCCCCCCCCC1A40CDCCCCCCCCCC3340CA
:1020B8004D020020000049405C02002000009041D1
:1020C8004502002046020020DC1C002080B483B0BA
:1020D80000AF0346FB7100BF0C37BD4680BC70479C
:1020E80080B483B000AF0346FB71134AFB791370C9
:1020F800114B1B78402B11D0402B13DC102B09D02F
:10210800102B0FDC002B11D00C2B0BD10B4B082202
:102118001A700CE0094B09221A7008E0074B0A22D2
:102128001A7004E0054B0B221A7000E000BF00BFD4
:102138000C37BD4680BC70474E020020DC1C0020D6
:1021480080B582B000AF0346FB71FB79002B06D047
:1021580001224FF48051074805F003FF05E00022F3
:102168004FF48051034805F0FCFE00BF0837BD4618
:1021780080BD00BF000C014080B483B000AF0346AF
:102188000A46FB711346BB71BB79012B01D10123B0
:1021980000E0002318460C37BD4680BC704780B469
:1021A80083B000AF0346FB710B46BB711346BB807F
:1021B800FB79002B00D100BF00BF0C37BD4680BCA7
:1021C8007047000080B584B000AF0346FB7101235F
:1021D800FB73FB7B1B4AD35CFB72FA7AFB791146D3
:1021E8001846FFF7C9FF0346BB72BB7A012B07D11C
:1021F800FB7B0133134AD35CBB81FB7B0233FB734C
:10220800BB7A022B10D1FB7B01330E4AD35C9BB205
:102218001B029AB2FB7B02330A49CB5C9BB2134484
:10222800BB81FB7B0333FB73BB7A002B05D0BA89D8
:10223800F97AFB791846FFF7B2FF00BF1037BD46A1
:1022480080BD00BFC002002080B500AF464B1B68B0
:10225800402B2AD1454B1B78B02B40F04F810020F2
:10226800FFF7B0FF414B5B78012B03D13F4B9A78C6
:102278003F4B1A703D4BDB78902B07D13B4B1A79BB
:102288003C4B1A70394B5A793B4B1A70374B5B7879
:10229800932B40F03381354B1B79142B40F02E8162
:1022A800324B5A79354B1A7028E12F4B1B68082B93
:1022B8006AD12E4B1B78B02B40F022810120FFF70A
:1022C80081FF2A4B5B78012B03D1284B9A782C4B42
:1022D8001A70264BDB78012B03D1244B1A79284B33
:1022E8001A70224B5B79012B03D1204B9A79244B2E
:1022F8001A701E4B5B780C2B05D11C4B9A78214B1E
:102308001A70FFF765FE194BDB780C2B05D1174BBC
:102318001A791C4B1A70FFF75BFE144B5B790C2B78
:1023280005D1124B9A79174B1A70FFF751FE0F4BD4
:102338005B78072B04D10D4B9B781846FFF7D0FE2E
:102348000A4BDB78072B04D1084B1B791846FFF79B
:10235800C7FE064B5B79072B40F0D280034B9B7975
:102368001846FFF7BDFECBE0A4020020C002002003
:102378003C000020D71C0020D61C00204F02002063
:102388004C0200204D0200205F4B1B68102B40F0D0
:10239800BA805E4B1B78B02B13D10220FFF712FFD7
:1023A8005A4B5B78012B03D1584B9A78584B1A70CB
:1023B800564B5B780B2B04D1544B9B785AB2554B38
:1023C8001A70524B1B78302B49D1504B5B78082B35
:1023D80045D14E4BDB782C2B02D14F4B01221A7082
:1023E8004A4BDB782D2B02D14C4B01221A70474BFC
:1023F800DB782E2B02D14A4B01221A70434BDB7833
:102408002F2B02D1474B01221A70404BDB78302B1F
:1024180002D1454B01221A703C4BDB78312B02D19B
:10242800424B01221A70394BDB78322B02D1404BD8
:1024380001221A70354BDB78332B02D13D4B012238
:102448001A70324BDB78342B02D13B4B01221A70C5
:102458002E4BDB78352B02D1384B01221A702B4BCF
:102468001B78312B4ED1294B5B78082B4AD1274B4F
:10247800DB782C2B02D1284B00221A70234BDB78F7
:102488002D2B02D1254B00221A70204BDB782E2BE6
:1024980002D1234B00221A701C4BDB782F2B02D160
:1024A800204B00221A70194BDB78302B02D11E4BBF
:1024B80000221A70154BDB78312B02D11B4B0022FE
:1024C8001A70124BDB78322B02D1194B00221A708A
:1024D8000E4BDB78332B02D1164B00221A700B4BB4
:1024E800DB78342B02D1144B00221A70074BDB78AF
:1024F800352B07D1114B00221A7003E000BF02E010
:1025080000BF00E000BF80BDA4020020C002002080
:102518003D000020580200206002002061020020D7
:10252800620200206302002064020020650200208D
:10253800660200206702002068020020690200206D
:1025480080B483B000AF0346FB71FA7913469B0051
:102558001A44054B1B78013B1344044AD35C1846C4
:102568000C37BD4680BC70470400002008000020DE
:1025780080B500AF8F4B1B780133DAB28D4B1A70E0
:102588008C4B1B780A2B02D18A4B00221A708A4B7B
:10259800B0221A70874B1B78092B00F2088101A220
:1025A80052F823F0D5250008FD2500082526000847
:1025B8004D260008752600089D260008C526000837
:1025C800EB260008112700085B2700087B4B1B78C7
:1025D800002B00F0DB80784B2C225A700020FFF78C
:1025E800AFFF03461A46744B9A700321402000F04F
:1025F800F3FCCBE0724B1B78002B00F0C9806E4BCC
:102608002D225A700120FFF79BFF03461A466A4B9A
:102618009A700321402000F0DFFCB9E0694B1B7879
:10262800002B00F0B780644B2E225A700220FFF76F
:1026380087FF03461A46604B9A700321402000F03A
:10264800CBFCA7E0604B1B78002B00F0A5805A4B11
:102658002F225A700320FFF773FF03461A46564B82
:102668009A700321402000F0B7FC95E0574B1B7887
:10267800002B00F09380504B30225A700420FFF753
:102688005FFF03461A464C4B9A700321402000F026
:10269800A3FC83E04E4B1B78002B00F08180464B57
:1026A80031225A700520FFF74BFF03461A46424B6A
:1026B8009A700321402000F08FFC71E0454B1B7895
:1026C800002B6FD03C4B32225A700620FFF738FFA0
:1026D80003461A46384B9A700321402000F07CFCD0
:1026E80060E03D4B1B78002B5ED0334B33225A7091
:1026F8000720FFF725FF03461A462F4B9A70032140
:10270800402000F069FC4FE0344B1B78002B0DD0C3
:10271800294B34225A700820FFF712FF03461A4645
:10272800254B9A700321402000F056FC2C4B1B7857
:10273800002B3BD0204B35225A700920FFF700FFB1
:1027480003461A461C4B9A700321402000F044FCB3
:102758002CE0194BB0221A70174B92225A70164B64
:10276800FF229A70144BFF22DA70134B93221A71CE
:102778001C4B1B78203BDAB20F4B5A710E4B0022D0
:102788009A710721402000F027FC10E000BF0EE0FE
:1027980000BF0CE000BF0AE000BF08E000BF06E091
:1027A80000BF04E000BF02E000BF00E000BF00BFC0
:1027B80080BD00BF6C02002098020020600200204B
:1027C80061020020620200206302002064020020EF
:1027D80065020020660200206702002068020020CF
:1027E800690200200400002080B500AF524B1B880E
:1027F8004FF6FF72934200F09D804F4B1B880133C8
:102808009AB24D4B1A804C4B1B88042B24D14B4B4E
:1028180003221A70494B00225A7002F0A1F90346AC
:10282800002B03D0454B01229A7010E0444B1B78D3
:102838000C2B09D8414B0B229A70414B1B78013362
:10284800DAB23F4B1A7002E03C4B0F229A70032118
:102858004FF42F7000F0C0FB374B1B88082B1ED19C
:10286800364B03221A70354B00225A70354B1B78B1
:102878000133DAB2334B1A70324B1B7803F0020380
:10288800DBB2002B03D12D4B02229A7002E02B4BB6
:102898000A229A7003214FF42D7000F09DFB264BFD
:1028A8001B880C2B0DD1254B03221A70234B0022B9
:1028B8005A70224B1D229A7003214FF46B7000F05E
:1028C8008BFB1D4B1B88102B16D11C4B03221A7037
:1028D8001A4B00225A7002F043F90346002B03D02A
:1028E800164B04229A7002E0144B2C229A70032192
:1028F8004FF4697000F070FB0F4B1B88172B19D928
:102908000D4B00221A800D4B03221A700B4B00222C
:102918005A7002F025F90346002B03D0074B0A2210
:102928009A7002E0054B1A229A7003214FF427701F
:1029380000F052FB00BF80BD3A0000209802002042
:102948006A0200206D02002080B500AF544B1B784E
:10295800103B152B00F2A28001A252F823F000BF11
:10296800C1290008A52A0008A52A0008A52A0008E8
:10297800A52A0008A52A0008A52A0008A52A0008F3
:10298800A52A0008A52A0008A52A0008A52A0008E3
:10299800A52A0008A52A0008A52A0008A52A0008D3
:1029A800E7290008A52A0008772A0008192A00083C
:1029B800312A0008652A00083A4B1B78102B62D18F
:1029C800394B1B78102B5ED100F082FB034640F296
:1029D8006C72934257D9324B20221A7053E0314B14
:1029E8001B78202B0BD1304B1B78202B07D102F002
:1029F80095FF0346002B02D0294B23221A7002F0C0
:102A0800AFF80346002B40D0254B01221A703CE05A
:102A1800244B1B78252B3AD1234B1B78252B36D1F9
:102A28001F4B24221A7032E002F078FF0346002B75
:102A380003D01B4B25221A702BE01C4B1B7801334B
:102A4800DAB21A4B1A70194B1B78072B21D9144B81
:102A580022221A70154B00221A701AE002F05EFF4B
:102A68000346002B17D10E4B24221A7013E00D4B8E
:102A78001B78202B11D10C4B1B78202B0DD1084B28
:102A880020221A7009E000BF08E000BF06E000BF7E
:102A980004E000BF02E000BF00E000BF00BF80BD4F
:102AA8003C0000204C0200203D0000206B0200206A
:102AB80080B582B000AF284B1B680133264A1360EB
:102AC800264B1B680133254A1360234B1B6803F010
:102AD8000303012B0AD1224BAA221A70204B04228D
:102AE8005A700221AA2000F077FA49E01A4B1B68B5
:102AF80003F00303022B3BD1FFF726FF194B1B788A
:102B08001F2B19D9164BB0221A70154B01225A7077
:102B1800144B1A78124B9A70114B9022DA70124BA0
:102B28001A780F4B1A71114B1A780D4B5A710621EE
:102B3800402000F051FA23E0094BB0221A70084BEC
:102B480001225A70074B1A78054B9A7003214020CE
:102B580000F042FA14E000BF48020020D81C002010
:102B6800980200203C000020D71C0020D61C002022
:102B7800914B1B6803F00303032B01D1FFF7F8FC0B
:102B88008E4B1B68DBB203F00103DBB21846FFF77C
:102B98009DFA8A4B1B68142B02D10120FFF7D0FA4B
:102BA800864B1B681C2B02D10020FFF7C9FA834B08
:102BB8001B681E2B03D0814B1B681F2B1BD1804B1E
:102BC80023221A707E4B00225A707D4B00229A7085
:102BD8007B4B0822DA707A4BFC221A71784B8022E0
:102BE8005A71774B00229A71754B0022DA710821CD
:102BF800402000F0F1F9714B1B68202B03D06F4B7C
:102C08001B68212B1BD16E4B21221A706C4B0022A2
:102C18005A706B4B00229A70694B0822DA70684B25
:102C2800FC221A71664B80225A71654B00229A71F8
:102C3800634B0022DA710821402000F0CDF95F4B88
:102C48001B68222B03D05D4B1B68232B1BD15C4BCD
:102C580024221A705A4B00225A70594B00229A703B
:102C6800574B0822DA70564BFC221A71544B4022FB
:102C78005A71534B00229A71514B0022DA71082184
:102C8800402000F0A9F94D4B1B683C2B1BD14C4B45
:102C980027221A704A4B00225A70494B00229A7018
:102CA800474BFD22DA70464B00221A71444B8022B2
:102CB8005A71434B00229A71414B0022DA71082164
:102CC800402000F089F93D4B1B683E2B1BD13C4B43
:102CD80013221A703A4B01225A70394B00229A700B
:102CE800374B0022DA70364B00221A71344BFF2220
:102CF8005A71334B00229A71314B0022DA71082144
:102D0800402000F069F92D4B1B68402B02D12D4B58
:102D180018221A80294B1B68482B12D1284B3022C5
:102D28001A70274B02225A70254B00229A70244BA6
:102D38000122DA70224B08221A710521402000F086
:102D48004BF91E4B1B684A2B0FD11D4B30221A70B2
:102D58001B4B01225A701A4B00229A70184B0722FB
:102D6800DA700421102000F037F9144B1B68C82BC7
:102D78001CD9114B1B6803F00303002B16D1002349
:102D8800FB71114B1B78002B03D0FB7943F0110327
:102D9800FB710B4BB0221A70094B14225A70084A67
:102DA800FB7993700321402000F016F9FFF71CFD12
:102DB80000BF0837BD4680BD48020020D81C00204F
:102DC800980200203A000020DD1C002080B400AFEB
:102DD800044B00229A60034B0022DA6000BFBD4614
:102DE80080BC70478002002080B500AF364803F0F1
:102DF800D9FE0346022B64D9344B1B8801339AB29F
:102E0800324B1A80324B1A78324B1B789A4258D080
:102E18002F4B1B781A46304B33F812301A462F4B7B
:102E28001A602B4B1B781A462D4B9B5C1A462B4B72
:102E38001A61274B1B78DB002A4A1A442A4B106870
:102E4800516803C3294B284A24491F4803F0DBFD76
:102E58000346002B05D0264B1B680133244A136018
:102E68002FE01E4B1B68102B0FD11F4BDB78112B4B
:102E78000BD1204B1B78184601F042FB1D4B1B78E9
:102E8800C3F10103DAB21B4B1A701B4B1B680133E9
:102E9800194A13600E4B1B780133DAB20C4B1A70C7
:102EA8000B4B1B78132B02D9094B00221A70134BBA
:102EB8001B78002B05D0114B1B78013BDAB20F4B66
:102EC8001A7000BF80BD00BFAC1B0020AA03002001
:102ED800C9020020C8020020CC0200208002002085
:102EE800F402002008030020B0030020A002002004
:102EF80050020020781B002054020020CA02002043
:102F080080B584B000AF78600D4B1B6801330C4A64
:102F180013600C4B0C4A0021786803F077FE0346D7
:102F2800FB73FB7B002B06D1084B1B680133074A58
:102F38001360FFF789F900BF1037BD4680BD00BF99
:102F480078020020C0020020A402002074020020A1
:102F580080B582B000AF7860054B1B8801339AB208
:102F6800034B1A80FFF740FF00BF0837BD4680BDFE
:102F78007C02002080B500AF144A0621144803F0F3
:102F880087FB0346002B01D001F0E4FD114A002124
:102F98000F4803F07DFB0346002B01D001F0DAFD5A
:102FA8000C4A01210A4803F073FB0346002B01D0A9
:102FB80001F0D0FD074A0221054803F069FB0346EA
:102FC800002B01D001F0C6FD00BF80BD092F00080D
:102FD800AC1B0020592F000880B584B000AF034611
:102FE8000A46FB8013467B712E4B1B68002B04D1CD
:102FF80002F070FD03462B4A13602B4B1B78FB73C2
:10300800FB7B0133FB73FB7B132B01D90023FB7381
:10301800264B1B78FA7B9A4206D1254B1B88013335
:103028009AB2234B1A8030E01F4B1B781946214A6D
:10303800FB8822F811301C4B1B7819461E4A7B79F5
:103048005354194B1B78DB001C4A13441C491A467D
:103058000B4603CB10605160134AFB7B1370194B6E
:103068001B8801339AB2174B1A80174B1B78013310
:10307800DAB2154B1A70144B1A78144B1B789A4213
:1030880003D9114B1A78114B1A70132004F063FA04
:10309800FFF7AAFE132004F050FA00BF1037BD4610
:1030A80080BD00BF70020020C8020020C9020020B5
:1030B800A8030020CC020020F4020020080300200E
:1030C80098020020AC030020CA020020CB02002096
:1030D80080B582B000AF02F0FDFC7860094B1B6838
:1030E800002B09D0074B1B687A689A4204D9054B14
:1030F8001B687A68D31A00E0002318460837BD46D3
:1031080080BD00BF7002002090B585B000AF0346B7
:103118000A46FB801346BB801923FB811923BB8118
:10312800FB89BA8902FB03F39BB25B009AB2174B87
:103138001A80FA88FB8913449BB2013B9CB2BA8877
:10314800BB8913449BB2013B9BB2B988F8882246DD
:10315800FEF708FA012201210D4804F002FF0022BF
:103168004FF400410B4804F0FCFE084B1A880A2370
:1031780009490A4805F01CFD01224FF400410548A1
:1031880004F0EFFE00BF1437BD4690BD2C1B002095
:10319800000C014000100140BC030020101C00205E
:1031A80080B485B000AF0346FB800B46BB80134656
:1031B8007B80F988BA8813469B0013449A0013440D
:1031C8000B449BB25B00FB817B881B0A9AB2FB898C
:1031D800D1B2064AD154FB8901337A88D1B2034A65
:1031E800D15400BF1437BD4680BC7047BC030020D3
:1031F80080B582B000AF00233B809F4B00221A802D
:1032080015E03B881B0A99B29B4B1B881A46C9B22A
:103218009A4B9954984B1B8801333A88D1B2974AF4
:10322800D154954B1B8802339AB2934B1A80924B18
:103238001B8840F2E1429342E3D902F08DF903463C
:10324800002B5DD04FF6E0733B8000237B7154E088
:103258007B79072B05D87B79C3F10C033B710C23D1
:10326800FB707B79072B08D97B790C2B05D87B79E8
:10327800C3F10C033B711823FB707B790C2B07D926
:103288007B79112B04D87B790C3B3B711823FB709D
:103298007B79112B07D97B79182B04D87B790C3BC8
:1032A8003B710C23FB703B79BB711FE0B9797A79CC
:1032B80013469B0013449A0013440B449BB25B00D3
:1032C8009AB26D4B1A803B881B0A99B26A4B1B88CD
:1032D8001A46C9B2694B9954674B1B8801333A881F
:1032E800D1B2664AD154BB790133BB71BA79FB7844
:1032F8009A42DBD97B7901337B717B79182BA7D96B
:10330800AE210020FFF700FF00233B805A4B00222C
:103318001A8015E03B881B0A99B2574B1B881A463E
:10332800C9B2564B9954544B1B8801333A88D1B2D1
:10333800524AD154504B1B8802339AB24E4B1A80D2
:103348004D4B1B8840F2E1429342E3D902F0F2F878
:103358000346002B5DD04FF6E0733B8000237B7162
:1033680054E07B79072B04D80C233B717B790C3311
:10337800FB707B79072B07D97B790C2B04D80023AA
:103388003B717B790C33FB707B790C2B08D97B79EB
:10339800112B05D800233B717B79C3F12403FB7003
:1033A8007B79112B08D97B79182B05D80C233B7115
:1033B8007B79C3F12403FB703B79BB711FE0B979BA
:1033C8007A7913469B0013449A0013440B449BB22A
:1033D8005B009AB2284B1A803B881B0A99B2264B8D
:1033E8001B881A46C9B2254B9954234B1B880133B5
:1033F8003A88D1B2214AD154BB790133BB71BA7929
:10340800FB789A42DBD97B7901337B717B79182B66
:10341800A7D9AE214FF49370FFF776FE00233B80C7
:10342800154B00221A8015E03B881B0A99B2124BF3
:103438001B881A46C9B2114B99540F4B1B8801338C
:103448003A88D1B20D4AD1540B4B1B8802339AB239
:10345800094B1A80084B1B8840F2E1429342E3D99A
:1034680000F01AFF0346002B00F0B7804FF6FF73F9
:103478003B800023FB7154E02C1B0020BC03002080
:10348800FB7998B2FB795B08DBB29BB2C3F10A0304
:103498009BB23A881946FFF783FEFB7998B2FB790D
:1034A8005B08DBB29BB2C3F10B039BB23A881946A7
:1034B800FFF776FEFB7998B2FB795B08DBB29BB22B
:1034C800C3F110039BB23A881946FFF769FEFB79EE
:1034D80098B2FB795B08DBB29BB2C3F111039BB2D4
:1034E8003A881946FFF75CFEFB7998B2FB795B08CE
:1034F800DBB29BB2C3F116039BB23A881946FFF7B9
:103508004FFEFB7998B2FB795B08DBB29BB2C3F143
:1035180017039BB23A881946FFF742FEFB7901333D
:10352800FB71FB790A2BABD90123FB7109E0FB790D
:103538009BB23A8819460C20FFF732FEFB7901331B
:10354800FB71FB79172BF2D90D23FB7110E0FB7986
:103558009BB23A8801211846FFF722FEFB799BB2FD
:103568003A8817211846FFF71BFEFB790133FB71D8
:10357800FB79102BEBD90023FB711BE0FB799BB285
:10358800103398B2FB799BB201339BB23A88194643
:10359800FFF706FEFB799BB2103398B2FB799BB21A
:1035A800C3F117039BB23A881946FFF7F9FDFB7977
:1035B8000133FB71FB79052BE0D90723FB7109E087
:1035C800FB799BB23A8819461620FFF7E9FDFB798B
:1035D8000133FB71FB79112BF2D9AE219420FFF74F
:1035E80093FD00BF0837BD4680BD00BF90B58DB0C4
:1035F80000AF0446084611461A462346FB710346A7
:10360800BB800B467B8013463B800023FB74002362
:10361800FB7797F8443003F04003002B07D00123D1
:10362800FB7797F8443023F0400387F84430FB7960
:103638001F2B03D997F90730002B01DA002394E1F7
:10364800FB79203BFB7197F84430022B0CD1FB79B6
:103658008B4A52F823307B62FB798A4AD35CFB851C
:103668001023BB8501237B8497F84430042B0DD1AC
:10367800FB79854A52F823307B62FB79834AD35C15
:10368800FB851A23BB854FF6FD737B8497F844307E
:10369800072B0CD1FB797E4A52F823307B62FB79E9
:1036A8007C4AD35CFB853023BB8502237B847A4B21
:1036B80000221A80FB8D0733002B00DA0733DB105A
:1036C800BB7400237B619FE000233B840023BB6124
:1036D8005FE03B8CDB4303F00703012202FA03F3AC
:1036E800FB73BB7C7A6902FB03F33A8CD20892B273
:1036F80013441A467B6A13441A78FB7B1340DBB2E7
:10370800002B02D03B887B8502E0B7F840307B85F0
:103718007B8D1B0A99B2604B1B881A46C9B25F4B56
:1037280099545D4B1B8801337A8DD1B25B4AD154D1
:10373800594B1B8841F26D72934205D8564B1B8832
:1037480002339AB2544B1A80FB7C002B1BD07B8D22
:103758001B0A99B2504B1B881A46C9B24F4B995451
:103768004D4B1B8801337A8DD1B24C4AD1544A4B08
:103778001B8841F26D72934205D8474B1B88023370
:103788009AB2454B1A803B8C01333B84BB690133A9
:10379800BB61FB8DBA699A429BDBFB7F002B30D063
:1037A8000023BB6129E0FB8D5B003B823A4B1B8801
:1037B8001A463B8AD31A384A12881146374AD25CCD
:1037C800364B5A54344B1B885A1C3B8AD21A324BFC
:1037D8001B8801333149895C304AD1542E4B1B88F0
:1037E80041F26D72934205D82B4B1B8802339AB273
:1037F800294B1A80BB690133BB61FB8DBA699A42B8
:10380800D1DB7B6901337B61BB8D7A699A42FFF614
:103818005BAFFB7C002B77D1FB7F002B46D0BA88AF
:10382800FB8D13449BB2013B9CB2BB8D5B009AB2EB
:103838007B8813449BB2013B9BB27988B8882246A7
:10384800FDF790FE01220121154804F08AFB0022B1
:103858004FF40041134804F084FB0F4B1A880A23E5
:103868000E49114805F0A4F901224FF400410D4812
:1038780004F077FB7A8CFB8D13449BB275E000BF94
:10388800D0EC000830E600083008010850EE0008C7
:10389800B0120108B00901082C1B0020BC0300204D
:1038A800000C014000100140101C0020BA88FB8D5C
:1038B80013449BB2013B9CB27A88BB8D13449BB2E4
:1038C800013B9BB27988B8882246FDF74BFE01225E
:1038D8000121284804F045FB00224FF40041264806
:1038E80004F03FFB254B1A880A232549254805F093
:1038F8005FF901224FF400411F4804F032FB7A8C33
:10390800FB8D13449BB230E0FB8D5B009AB2BB8801
:1039180013449BB2013B9CB27A88BB8D13449BB283
:10392800013B9BB27988B8882246FDF71BFE01222D
:103938000121104804F015FB00224FF400410E4805
:1039480004F00FFB0D4B1A880A230D490D4805F0AA
:103958002FF901224FF40041074804F002FBFB8DC8
:103968005B009AB27B8C13449BB218463437BD4631
:1039780090BD00BF000C0140001001402C1B00202E
:10398800BC030020101C002090B589B002AFF8607D
:10399800084611461A4603467B810B463B8113466F
:1039A800FB800023FB821BE0FB68187879893A8941
:1039B800FC8897F82C3001933B8D00932346FFF742
:1039C80015FE0346BB82FA8ABB8A13449BB2FB826C
:1039D800FB680133FB607A89BB8A13449BB27B8105
:1039E800FB681B78002BDFD1B7F9163018461C3757
:1039F800BD4690BD80B582B000AF02F06BF80346BB
:103A0800154AA2FB03239B097B607B68012B02D923
:103A1800124B01221A70124B1B780133DAB2104B89
:103A28001A700F4B1B7803F00703DAB20C4B1A70AD
:103A38000C4B1A78094B1B789A4203D0074B1A781B
:103A4800084B1A70054B1B78012B01D100F0A8F91F
:103A580000BF0837BD4680BDD34D6210B8030020B3
:103A6800BA030020B903002080B584B002AFFDF787
:103A7800F1FD0020FDF7E6FF0320FDF7F5FE4423E6
:103A88000193002300934AF6E57328226E21234808
:103A9800FFF77AFF002301934FF6FF7300935A2331
:103AA8006E221F491F48FDF774FC002301934FF64F
:103AB800FF7300937823552219491B48FDF769FCC9
:103AC800002301934FF6FF73009396231E22174994
:103AD8001748FDF75EFC2823FB800CE0F8884FF4BC
:103AE800FC631E22BE21FEF795F8142001F0FCFFAE
:103AF800FB880333FB80FB88B3F58C7FEED9642009
:103B080001F0F2FF0B4B00221A700B4B00221A70C7
:103B180000F092F800BF0837BD4680BD70C00008AD
:103B2800D4D4000878C0000888C000088CC30008F6
:103B38009CC00008B8030020B903002080B582B0FB
:103B480002AF364B1A78364B1B789A4262D0334B09
:103B58001B78002B51D04FF478430093EF2340F2A9
:103B68003F12C7210020FDF741FB2C4B1B781A465A
:103B78002C492D4805F0F2FF022301934FF47843B6
:103B880000934AF6E573C82200212748FFF7FCFE98
:103B9800224B1B781A46254B53F822000223019327
:103BA8004FF4784300934AF6E573DC220021FFF7CF
:103BB800EBFE1A4B1B780B2B0BD0184B1B78082BE2
:103BC80007D0164B1B78092B03D0144B1B780A2BF4
:103BD8001CD1174B1B781A461649134805F0BEFF2F
:103BE800022301934FF4784300934AF6E573C82201
:103BF800B4210D48FFF7C8FE08E000230093EF2327
:103C080040F23F12C7210020FDF7F0FA034B1A7863
:103C1800034B1A7000BFBD4680BD00BFDC1C0020EE
:103C2800621B002048C20008301B00205CC300084B
:103C38004E02002054C2000880B582B002AF0020B6
:103C4800FDF700FF002301934AF6E5730093002374
:103C58000A2245494548FDF79CFB002301934AF693
:103C6800E573009314230A223F494148FDF791FB6D
:103C7800002301934AF6E573009328230A223A4960
:103C88003C48FDF786FB002301934AF6E573009351
:103C98003C230A2234493848FDF77BFB0023019373
:103CA8004AF6E573009350230A222F493348FDF75B
:103CB80070FB002301934AF6E573009364230A22FC
:103CC80029492F48FDF765FB002301934AF6E57360
:103CD800009378230A2224492A48FDF75AFB002337
:103CE80001934AF6E57300938C230A221E4926485D
:103CF800FDF74FFB002301934AF6E5730093A023D9
:103D08000A2219492148FDF744FB002301934AF68A
:103D1800E57300930023B42213491D48FDF739FBCE
:103D2800002301934AF6E57300931423B4220E4945
:103D38001848FDF72EFB002301934AF6E57300931C
:103D48002823B42208491448FDF723FB00230193D4
:103D58004AF6E57300933C23B42203490F48FDF764
:103D680018FB00BFBD4680BD70CB000860C20008CC
:103D78006CC2000874C2000880C2000888C200082B
:103D880090C2000898C20008A0C20008A8C2000893
:103D9800B0C20008BCC20008CCC20008D8C20008E3
:103DA8002DE9B04F86B006AFAF4B1B78072B00F25A
:103DB800AB8101A252F823F0E13D0008573E00080C
:103DC800E93E0008893F0008C13F0008014000089B
:103DD80007400008DD400008A44B1B68A44AA2FB6A
:103DE80003239B091A46A349A34805F0B7FE0223FB
:103DF8000193002300934AF6E573002264219E484C
:103E0800FFF7C2FD9D4B1B681A469D499A4805F06D
:103E1800A5FE02230193002300934AF6E5731422BA
:103E280064219548FFF7B0FD964B1B881A469649C2
:103E3800914805F093FE02230193002300934AF66C
:103E4800E573282264218C48FFF79EFD5CE18F4BC7
:103E58001B881A468E49884805F080FE0223019384
:103E6800002300934AF6E5733C2264218248FFF759
:103E78008BFD864B5B881A4685497F4805F06EFEA8
:103E880002230193002300934AF6E573502264212C
:103E98007948FFF779FD7D4B9B881A467C4976481F
:103EA80005F05CFE02230193002300934AF6E573B4
:103EB800642264217048FFF767FD744BDB881A465B
:103EC80073496D4805F04AFE0223019300230093CD
:103ED8004AF6E573782264216748FFF755FD13E138
:103EE8006C4B1B781A466C49634805F037FE022371
:103EF8000193002300934AF6E57300224FF48C7176
:103F08005D48FFF741FD654B1B781A4662495A48E0
:103F180005F024FE02230193002300934AF6E5737B
:103F280014224FF48C715448FFF72EFD5C4B1B781C
:103F38001A465949504805F011FE022301930023FF
:103F480000934AF6E57328224FF48C714A48FFF72C
:103F58001BFD544B1B681846FCF7CEFA02460B466D
:103F68005149454805F0FAFD0423019300230093C5
:103F78004AF6E5733C22F0213F48FFF705FDC3E010
:103F88004A4B1B78002B0BD004230193002300938A
:103F98004AF6E5736422AA214548FFF7F5FCB3E029
:103FA80004230193002300934AF6E5736422AA21AF
:103FB8004048FFF7E9FCA7E0324B1B8803F4807305
:103FC800002B0CD004230193002300934AF6E573D9
:103FD8008C2240F221113848FFF7D6FC94E00423E4
:103FE8000193002300934AF6E5738C2240F22111D5
:103FF8003248FFF7C9FC87E0FFF7FAF884E0304B56
:104008001B681846FCF778FA82468B462D4B1B68CE
:104018001846FCF771FA04460D462B4B1B681846E8
:10402800FCF76AFA80468946284B1B681846FCF755
:1040380063FA02460B46CDE90423CDE90289CDE9AE
:10404800004552465B4622490B4805F087FD02238E
:104058000193002300934AF6E5738C2264210648F5
:10406800FFF792FC50E000BFBA030020B81C002004
:104078001F85EB51E0C20008301B002074020020AD
:10408800E8C2000840020020F0C200083802002000
:10409800F8C200083C00002000C300083D000020D2
:1040A8004C0200205C02002008C300083E000020EB
:1040B80014C3000824C3000830C3000834C3000830
:1040C800641B0020681B00206C1B0020701B002054
:1040D80038C3000800F044FD0346002B11D00C4BF8
:1040E8001B781A460B490C4805F038FD022301934A
:1040F800002300934AF6E573C82202210648FFF719
:1041080043FCFFF71BFD00BF00BFBD46BDE8B08FF5
:10411800AC1C002054C30008301B002080B582B0BE
:1041280000AF4F4B1B881846FCF71CFE03467B600C
:104138004C497868FCF76EFE03467B604A4978680C
:10414800FCF71CFF03467B60484A7B681360474BBB
:104158001B684FF07E511846FCF752FD03467B6002
:1041680043497868FCF756FE034642491846FCF76F
:1041780005FF03461A46404B1A603F4B1B683F49F0
:104188001846FCF7E5FF0346002B11D03C4B4FF0D7
:1041980000021A603B4B1B780133DAB2394B1A70B4
:1041A800384B1B78192B47D9374B06221A7043E036
:1041B800314B1B684FF000011846FCF7C9FF034656
:1041C800002B07D02E4B4FF000021A602D4B002217
:1041D8001A7031E0284B1B6825491846FCF7C2FFC6
:1041E8000346002B07D0244B1B68254A1360254B38
:1041F80000221A7020E0204B1B6824491846FCF75F
:10420800B1FF0346002B06D01D4B194A1A601D4BFF
:1042180000221A7010E01B4B1B780133DAB2194BDD
:104228001A70184B1B78192B02D9174B07221A70D2
:10423800134B4FF000021A60114B1B68144A1360AD
:10424800144B1B8803F48073002B05D0104B1B689C
:1042580083F000430E4A136000BF0837BD4680BD97
:10426800380200203333D34000F07F45641B002020
:104278000000C84200004040681B00200000A0C1A8
:104288006C1B0020741B0020DC1C00200000F04286
:10429800701B00204002002080B400AF024B1B7846
:1042A8001846BD4680BC7047761B002080B483B09A
:1042B80000AF0346FB71FB79002B0ED00B4B1B782C
:1042C800002B0AD10A4B1B78012B03D1084B002283
:1042D8001A7002E0064B01221A70044AFB79137027
:1042E80000BF0C37BD4680BC704700BF751B00205F
:1042F800761B002080B500AF064B1B78012B03D13D
:10430800012000F08FF803E0002000F08BF800BFD8
:1043180000BF80BD761B002080B582B000AF034689
:10432800FB71FB79002B06D001224FF4005107489E
:1043380003F017FE05E000224FF40051034803F094
:1043480010FE00BF0837BD4680BD00BF000C01400D
:1043580080B582B000AF0346FB71FB79002B05D016
:1043680001221021064803F0FCFD04E00022102180
:10437800034803F0F6FD00BF0837BD4680BD00BF07
:10438800000C014080B582B000AF0346FB71FB7999
:10439800002B05D001222021064803F0E2FD04E0AD
:1043A80000222021034803F0DCFD00BF0837BD468A
:1043B80080BD00BF000C014080B582B000AF03464D
:1043C800FB71FB79002B05D001228021064803F000
:1043D800C8FD04E000228021034803F0C2FD00BFAD
:1043E8000837BD4680BD00BF000C014080B582B0D3
:1043F80000AF0346FB71FB79002B06D001224FF476
:104408008071074803F0ADFD05E000224FF480718C
:10441800034803F0A6FD00BF0837BD4680BD00BFB6
:10442800000C014080B582B000AF0346FB71FB79F8
:10443800002B06D001224FF40071074803F091FDCC
:1044480005E000224FF40071034803F08AFD00BF25
:104458000837BD4680BD00BF000C014080B582B062
:1044680000AF0346FB71FB79002B06D001224FF405
:104478008061074803F075FD05E000224FF4806174
:10448800034803F06EFD00BF0837BD4680BD00BF7E
:10449800000C014080B582B000AF0346FB71FB7988
:1044A800002B05D001224021064803F05AFD04E004
:1044B80000224021034803F054FD00BF0837BD46E1
:1044C80080BD00BF000C014080B582B000AF03463C
:1044D800FB71FB79002B06D001224FF4807107484D
:1044E80003F03FFD05E000224FF48071034803F01C
:1044F80038FD00BF0837BD4680BD00BF0010014031
:1045080080B582B000AF0346FB71FB79002B06D063
:1045180001224FF40071074803F023FD05E0002253
:104528004FF40071034803F01CFD00BF0837BD4677
:1045380080BD00BF0010014080B500AF10210548C4
:1045480003F0F8FC0346002B0CBF01230023DBB269
:10455800184680BD0010014080B500AF20210548F5
:1045680003F0E8FC0346002B0CBF01230023DBB259
:10457800184680BD0010014080B500AF40210548B5
:1045880003F0D8FC0346002B0CBF01230023DBB249
:10459800184680BD0010014080B500AF8021054855
:1045A80003F0C8FC0346002B0CBF01230023DBB239
:1045B800184680BD0010014080B500AF4FF48071EF
:1045C800054803F0B7FC0346002B0CBF012300236A
:1045D800DBB2184680BD00BF0008014080B500AFBF
:1045E8004FF48041054803F0A5FC0346002B0CBF9F
:1045F80001230023DBB2184680BD00BF000C014038
:1046080080B500AF4FF40041054803F093FC034622
:10461800002B0CBF01230023DBB2184680BD00BF6E
:10462800000C014080B500AF0121054803F082FC71
:104638000346002B0CBF01230023DBB2184680BDC4
:104648000008014080B500AF4FF40071054803F041
:1046580071FC0346002B0CBF01230023DBB2184674
:1046680080BD00BF0008014080B500AF4FF48061F5
:10467800054803F05FFC0346002B0CBF0123002311
:10468800DBB2184680BD00BF0008014080B582B08B
:1046980000AF01F0C7F900F039F800F095F900F023
:1046A80075F900F091F800F0CDF800F039F9144BE5
:1046B8009B69134A43F001039361114B9B6903F013
:1046C80001033B603B680F4B5B687B607B6823F0B2
:1046D800E0637B607B6843F000737B60094A7B681A
:1046E80053600120FFF718FEFFF7BEF9064801F0F6
:1046F80009FBFEF76BFB00F09DFA00F0ADFAFCE752
:1047080000100240000001407C1B002080B596B0DC
:1047180000AF07F1300328220021184604F0B6FD47
:1047280007F11C0300221A605A609A60DA601A6165
:104738003B1D00221A605A609A60DA601A615A6159
:1047480001233B634FF480337B630023BB63012366
:104758003B640223FB644FF480333B654FF4E01362
:104768007B6507F13003184603F014FC0346002B61
:1047780001D000F0EFF90F23FB6102233B62002315
:104788007B624FF48063BB624FF48063FB6207F186
:104798001C030221184603F07FFE0346002B01D0BC
:1047A80000F0D8F902237B604FF48043FB603B1D87
:1047B800184603F0EBFF0346002B01D000F0CAF9BE
:1047C80000BF5837BD4680BD80B584B000AF3B1DE3
:1047D80000221A605A609A60184B194A1A60174BDF
:1047E80000229A60154B00221A73144B00221A7586
:1047F800124B4FF46022DA61104B00225A600F4BC3
:1048080001221A610D4801F093F90346002B01D0EB
:1048180000F0A0F90A237B600123BB600023FB6042
:104828003B1D1946054801F059FC0346002B01D0F1
:1048380000F090F900BF1037BD4680BD7C1B0020FA
:104848000024014080B58AB000AF334B334A1A6068
:10485800314B39225A60304B00229A602E4B00228D
:10486800DA602D4B4FF400321A612B4B4FF4801253
:104878005A61294B00221A76274B01225A76264B79
:1048880000229A76244B0122DA76234B00221A77EB
:10489800214B00225A77204801F0B4FD0346002B33
:1048A80001D000F057F90023BB600023FB60002310
:1048B8003B6100237B610023BB610123FB61012372
:1048C8003B623B461946144801F090FF0346002B13
:1048D80001D000F03FF9FEF74DFB0F4802F04FF80A
:1048E8000346002B01D000F035F902210A4802F0F6
:1048F800AEFA0346002B01D000F02CF9012106483E
:1049080002F0A5FA0346002B01D000F023F900BFFE
:104918002837BD4680BD00BFAC1B002000640040A6
:1049280080B500AF174B184A1A60164B4FF48272C5
:104938005A60144B00229A60124B0022DA60114B25
:1049480000221A610F4B00225A610E4B4FF400727D
:104958009A610C4B0022DA610A4B00221A62094B59
:1049680000225A62074B00229A62064B0A22DA6238
:10497800044804F099F80346002B01D000F0EAF847
:1049880000BF80BD101C00200030014080B582B0FF
:1049980000AF0C4B5B690B4A43F001035361094BB1
:1049A8005B6903F001037B607B68002200210D2016
:1049B80002F0A7FD0D2002F0C0FD00BF0837BD467C
:1049C80080BD00BF0010024080B588B000AF07F17D
:1049D800100300221A605A609A60DA60584B9B698B
:1049E800574A43F020039361554B9B6903F020031A
:1049F800FB60FB68524B9B69514A43F0100393617B
:104A08004F4B9B6903F01003BB60BB684C4B9B6921
:104A18004B4A43F004039361494B9B6903F0040339
:104A28007B607B68464B9B69454A43F0080393616A
:104A3800434B9B6903F008033B603B68002243F645
:104A4800FF71404803F08DFA00224FF498513E4818
:104A580003F087FA002204213C4803F082FA40F26E
:104A680001733B6100237B610023BB6107F11003E5
:104A78001946374803F0CAF8F0233B6100237B61ED
:104A88000023BB6107F1100319462F4803F0BEF855
:104A980043F6FF733B6101237B610023BB61022363
:104AA800FB6107F110031946264803F0AFF84FF4ED
:104AB80040433B6100237B610023BB6107F1100386
:104AC8001946204803F0A2F84FF498533B6101239C
:104AD8007B610023BB610223FB6107F110031946C8
:104AE800194803F093F84FF480633B6102237B611C
:104AF8000323FB6107F110031946134803F086F8F6
:104B08004FF400633B6100237B610023BB6107F125
:104B1800100319460C4803F079F804233B6101237C
:104B28007B610023BB610223FB6107F11003194677
:104B3800064803F06BF800BF2037BD4680BD00BFB4
:104B480000100240000C0140001001400014014018
:104B58000008014080B400AF72B600BFFEE7000055
:104B680080B400AF054B1B78002B14BF0123002332
:104B7800DBB21846BD4680BC704700BFAC1C0020A5
:104B880080B400AF034B16221A7000BFBD4680BC2C
:104B9800704700BFAC1C002080B500AF094B1B78E4
:104BA800002B0CD0074B1B78013BDAB2054B1A706F
:104BB800044B1B78002B02D10020FFF7ADFB00BF90
:104BC80080BD00BFAC1C002080B500AF0120FFF7FE
:104BD80061FCFDF7DBF800F0D9FEFDF769FFFDF792
:104BE8004DF900F011FA0B4B1B680133094A1360A9
:104BF800084B1B6803F02003002B14BF012300237C
:104C0800DBB21846FFF7D8FB0020FFF743FC00BFD4
:104C180080BD00BFB81C002080B500AFFEF7EAFEDB
:104C2800FFF7BAFF00F014FDFFF764FBFFF776FA11
:104C380000BF80BD80B500AF00F04CFF0346044ABA
:104C48001360034B1B68034A136000BF80BD00BF9D
:104C5800B01C0020B41C002080B582B000AF134BFC
:104C68001B8801339AB2114B1A8000F033FF786029
:104C78000F4B1B6814337A689A4206D30C4B1B6897
:104C880014330B4A1360FFF7C7FF0A4B1B68053341
:104C98007A689A4206D3074B1B680533054A1360A6
:104CA800FFF792FF00BF0837BD4680BDAE1C00204D
:104CB800B01C0020B41C0020B0B500AF5A4B4FF018
:104CC80000021A60594B1B78012B0CD0574B1B78EC
:104CD800022B08D0564B1B78803B1846FCF746F849
:104CE8000346514A1360504B1B684FF080411846E9
:104CF800FCF72EFA0346002B31D04B4B1B684FF0C4
:104D080040411846FCF742FA0346002B27D0474B90
:104D18001B78032B23D0454B1B78062B1FD0434B06
:104D28001B78072B1BD0434B1B681846FBF7E4FB8B
:104D380037A3D3E90023FBF737FC02460B4610469E
:104D480019464FF000023C4BFBF758FD02460B4654
:104D580010461946FBF700FF0346334A1360374BEA
:104D68001B78002B0AD0304B1B684FF08141184646
:104D7800FCF704F903461A462B4B1A60304B1B68A4
:104D88001846FBF7B9FB24A3D3E90023FBF70CFC77
:104D980002460B4614461D46234B1B681846FBF774
:104DA800ABFB1FA3D3E90023FBF7FEFB02460B4630
:104DB80020462946FBF742FA02460B46104619469A
:104DC800FBF7CAFE03461E4A13601D4B1B681D49AC
:104DD8001846FCF7DBF90346002B02D0184B194A9A
:104DE8001A60174B1B6818491846FCF7B1F90346B7
:104DF800002B02D0124B144A1A60114B1B6818463C
:104E0800FCF7CEF903465AB2104B1A7000BFB0BD7A
:104E18000000000000C05F40AE47E17A14AEEF3FEB
:104E28007B14AE47E17A843FC41C0020DC1C0020C0
:104E3800D71C0020701B0020000059403E000020B5
:104E4800C01C00200000FE420000FEC2BE1C002064
:104E580080B400AF00BFBD4680BC704780B500AFCE
:104E68000E4B1B780133DAB20C4B1A700B4B1B78C4
:104E780003F00303002B01D0012B0DE0084BB022F7
:104E88001A70074B0E225A70054B00229A700321A4
:104E98001020FEF7A1F800BF00BF80BDBD1C002098
:104EA8009802002080B400AF394B1B78103B152BBB
:104EB80069D801A252F823F0194F00088F4F000853
:104EC8008F4F00088F4F00088F4F00088F4F000842
:104ED8008F4F00088F4F00088F4F00088F4F000832
:104EE8008F4F00088F4F00088F4F00088F4F000822
:104EF8008F4F00088F4F0008294F0008594F0008AE
:104F0800694F0008394F00088F4F0008494F0008C3
:104F1800204B1B78202B2BD11D4B20221A7027E009
:104F28001C4B1B78232B25D1194B23221A7021E007
:104F3800194B1B78252B1FD1154B25221A701BE006
:104F4800144B1B78222B19D1114B21221A7015E012
:104F5800114B1B78222B13D10D4B22221A700FE014
:104F68000D4B1B78202B0DD1094B20221A7009E01C
:104F780000BF08E000BF06E000BF04E000BF02E099
:104F880000BF00E000BF00BFBD4680BC704700BF47
:104F98003D0000203C0000204C02002080B400AFFF
:104FA800164B1B78C82B0ED9154B1B78632B06D8CC
:104FB800134B1B780133DAB2114B1A7019E0114BFD
:104FC80000221A7015E00D4B1B78312B0ED80C4BB4
:104FD8001B78632B06D80A4B1B780133DAB2084BCF
:104FE8001A7006E0074B01221A7002E0044B0022F7
:104FF8001A7000BFBD4680BC704700BFD61C002099
:10500800C81C00203E00002080B500AFFFF7C6FF97
:10501800FFF71EFFFFF750FE294B1B780133DAB26A
:10502800274B1A70264B1B7803F00303032B41D040
:10503800032B42DC002B02D0022B2AD03DE0FFF7E5
:1050480031FF204BB0221A701E4B01225A701E4BA2
:105058001A781C4B9A701B4B1122DA701B4B1A786A
:10506800184B1A71174B0D225A71164B00229A7160
:10507800174B1B781846FFF727FA154B1B78C3F117
:105088000103DAB2124B1A7007211020FDF7A4FFB2
:1050980013E00C4BB0221A700A4B0B225A700D4BBE
:1050A80093F90030DAB2074B9A7003211020FDF70C
:1050B80093FF02E0FFF7D2FE00BF00BF80BD00BF34
:1050C800BC1C0020980200203D0000203C0000206D
:1050D800771B0020BE1C002080B483B000AF0E4BAD
:1050E8009B690D4A43F0010393610B4B9B6903F0E5
:1050F80001037B607B68084BDB69074A43F08053F8
:10510800D361054BDB6903F080533B603B6800BF0C
:105118000C37BD4680BC70470010024080B588B08F
:1051280000AF786007F1100300221A605A609A6095
:10513800DA607B681B68144A934221D1134B9B6940
:10514800124A43F400739361104B9B6903F4007394
:10515800FB60FB680D4B9B690C4A43F0100393619D
:105168000A4B9B6903F01003BB60BB680F233B61CC
:1051780003237B6107F110031946054802F046FD39
:1051880000BF2037BD4680BD00240140001002400A
:105198000010014080B588B000AF786007F11003B7
:1051A80000221A605A609A60DA607B681B68244A99
:1051B800934241D1234BDB69224A43F00073D36108
:1051C800204BDB6903F00073FB60FB681D4B9B6998
:1051D8001C4A43F0040393611A4B9B6903F00403D0
:1051E800BB60BB684FF400633B6100237B61002315
:1051F800BB6107F110031946134802F007FD4FF48D
:1052080080533B6102237B610323FB6107F1100399
:1052180019460D4802F0FAFC00220021132002F082
:1052280070F9132002F089F900220021142002F0FD
:1052380068F9142002F081F900BF2037BD4680BD0F
:1052480000640040001002400008014080B588B0AA
:1052580000AF786007F1100300221A605A609A6064
:10526800DA607B681B68284A934249D1274B9B69BF
:10527800264A43F480539361244B9B6903F480537B
:10528800FB60FB68214B9B69204A43F00403936150
:105298001E4B9B6903F00403BB60BB68E0233B61C2
:1052A80002237B610323FB6107F1100319461848A9
:1052B80002F0ACFC174B184A1A60164B10225A60C1
:1052C800144B00229A60134B8022DA60114B0022A3
:1052D8001A61104B00225A610E4B00229A610D4B45
:1052E8000022DA610B4802F051F90346002B01D085
:1052F800FFF730FC7B68074A9A64064A7B6853626A
:1053080000BF2037BD4680BD00300140001002407C
:1053180000080140681C00203000024080B400AF43
:10532800FEE780B400AFFEE780B400AFFEE780B4CC
:1053380000AFFEE780B400AFFEE780B400AF00BF67
:10534800BD4680BC704780B400AF00BFBD4680BC7E
:10535800704780B400AF00BFBD4680BC704780B5C1
:1053680000AF00F0A5FB00BF80BD000080B500AF16
:10537800024802F0E1F900BF80BD00BF681C0020B0
:1053880080B500AF024801F087FD00BF80BD00BFB7
:10539800AC1B002080B500AF024801F07DFD00BFC6
:1053A80080BD00BFAC1B002080B400AF01231846AD
:1053B800BD4680BC704780B582B000AF7860396068
:1053C80003F03AFF034616221A604FF0FF331846DF
:1053D8000837BD4680BD80B582B000AF78604FF019
:1053E800FF317868FFF7E7FFFEE780B586B000AFCA
:1053F800F860B9607A6000237B610AE0AFF300804F
:105408000146BB685A1CBA60CAB21A707B6901337C
:105418007B617A697B689A42F0DB7B6818461837AB
:10542800BD4680BD80B586B000AFF860B9607A60CF
:1054380000237B6109E0BB685A1CBA601B781846D8
:10544800AFF300807B6901337B617A697B689A429C
:10545800F1DB7B6818461837BD4680BD80B483B041
:1054680000AF78604FF0FF3318460C37BD4680BC5C
:10547800704780B483B000AF786039603B684FF400
:1054880000525A60002318460C37BD4680BC70474E
:1054980080B483B000AF7860012318460C37BD464E
:1054A80080BC704780B485B000AFF860B9607A609E
:1054B800002318461437BD4680BC704780B586B0B7
:1054C80000AF7860144A154BD31A7B617B693B6146
:1054D800134B1B68002B02D1114B124A1A60104B58
:1054E8001A687B6813443A699A4207D203F0A4FE0B
:1054F80003460C221A604FF0FF3309E0084B1B6883
:10550800FB60074B1A687B681344054A1360FB6805
:1055180018461837BD4680BD000001200004000071
:10552800CC1C0020F81C002080B400AF00BFBD4692
:1055380080BC704780B400AF064B1B7803F00103B2
:10554800002B14BF01230023DBB21846BD4680BCE4
:10555800704700BFD51C002080B400AF064B1B78F5
:1055680003F00203002B14BF01230023DBB218460B
:10557800BD4680BC704700BFD51C002080B483B0F6
:1055880000AF03460A46FB711346BB71BB79002B7B
:105598001DD0FB79002B1AD0284B1B78132B0FD862
:1055A800264B1B780133DAB2244B1A70234B1B7835
:1055B800142B05D1224B03221A70224B00221A7099
:1055C800214AFB791370214ABB79137032E01B4BD7
:1055D80000221A70BB79002B11D01C4B1B78002BB2
:1055E8000DD1174B1B78012B03D1154B00221A70D4
:1055F80005E0134B01221A70124B00221A70FB7936
:10560800002B11D0104B1B78002B0DD10C4B1B78A5
:10561800022B03D10A4B00221A7005E0084B022224
:105628001A70084B00221A70074AFB791370074A50
:10563800BB7913700C37BD4680BC7047D41C002062
:10564800D21C0020D31C0020D11C0020D01C00201C
:1056580080B500AF524B1B780133DAB2504B1A7049
:105668004F4B1B78252B02D94D4B00221A704D4BFE
:1056780000221A704C4B1B78032B4AD0032B7FDC7B
:10568800012B02D0022B22D07AE0454B1B78122B3B
:1056980002D8444B01221A70414B1B78122B94BF3D
:1056A80001230023DBB21846FEF76CFE0020FEF74C
:1056B8004FFE3B4B1B78122B94BF01230023DBB218
:1056C8001846FEF793FE0020FEF7C8FE65E0344B4F
:1056D8001B78122B02D8334B02221A70304B1B78DE
:1056E800122B94BF01230023DBB21846FEF730FECD
:1056F8000020FEF747FE2A4B1B78122B94BF01238C
:105708000023DBB21846FEF7A9FE0020FEF76EFE66
:1057180043E0234B1B78212B02D9214B00221A701E
:105728001F4B1B78102B02D81E4B03221A701C4BE0
:105738001B78102B94BF01230023DBB21846FEF719
:1057480007FE174B1B78102B94BF01230023DBB2F5
:105758001846FEF717FE124B1B78102B94BF012337
:105768000023DBB21846FEF741FE0D4B1B78102BC9
:1057780094BF01230023DBB21846FEF76FFE0CE04E
:105788000020FEF7FFFD0020FEF7E2FD0020FEF7F7
:105798002DFE0020FEF762FE00BF00BF80BD00BFE7
:1057A800D31C0020D51C0020D21C002080B500AFDF
:1057B800134B1B68322B20D9114B1B68C72B1CD8E5
:1057C800104B1B78802B02D00F4B01221A700F4B05
:1057D8001B78802B02D00C4B02221A700C4B1B68D2
:1057E80023F000430B491846FBF7D0FC0346002B77
:1057F80000D102E0044B03221A7000BF80BD00BF35
:10580800D81C0020D61C0020DC1C0020D71C00203F
:10581800701B00200000404080B483B000AF3B4BB9
:10582800DB88BB80BB8840F20572934205D8BB88F1
:10583800A3F206739BB2FB800CE0BB8840F6FA0229
:10584800934205D9BB88A3F6FA039BB2FB8001E01B
:105858000023FB80B7F906302D4A82FB03121A4455
:10586800D210DB17D31AFB80FB8880339BB2FB80F6
:10587800B7F90630002B01DC0123FB80B7F90630AD
:10588800FF2B01DDFF23FB80FB88DAB2214B1A7066
:105898001E4B9B887B807B8840F20572934205D81B
:1058A8007B88A3F206739BB2FB800CE07B8840F6F2
:1058B800FA02934205D97B88A3F6FA039BB2FB80D0
:1058C80001E00023FB80B7F90630114A82FB03127E
:1058D8001A44D210DB17D31AFB80FB8880339BB2A3
:1058E800FB80B7F90630002B01DC0123FB80B7F9F8
:1058F8000630FF2B01DDFF23FB80FB88DAB2064B65
:105908001A7000BF0C37BD4680BC704738020020B3
:1059180093244992D61C0020D71C002080B500AFE4
:10592800164B1B787B2B0BD9144B1B78842B07D871
:10593800134B1B787B2B03D9114B1B78842B03D972
:10594800104B4FF4C8721A800F4B1B6823F00043AA
:105958004FF07C511846FBF719FC0346002B03D087
:10596800084B4FF4C8721A80064B1B88002B01D0D5
:10597800012300E00023184680BD00BFD71C00208B
:10598800D61C0020DE1C0020701B002080B500AF54
:10599800FFF70CFF0D4B19680D4BA3FB0123DA0829
:1059A80013469B0013445B00CA1A002A01D1FFF773
:1059B80033FF084B1B88002B05D0064B1B88013B87
:1059C8009AB2044B1A8000BF80BD00BFD81C0020CB
:1059D800CDCCCCCCDE1C0020FFF7A6FD0B480C4933
:1059E8000C4A002302E0D458C4500433C4188C4233
:1059F800F9D3094A094C002301E013600432A2429A
:105A0800FBD303F01FFCFEF741FE704700000020A7
:105A18001C0200203C1801081C020020F41C002075
:105A2800FEE7000080B500AF084B1B68074A43F04B
:105A380010031360032001F059FD0F2000F008F84F
:105A4800FFF74AFB0023184680BD00BF0020024034
:105A580080B582B000AF7860124B1A68124B1B7881
:105A680019464FF47A73B3FBF1F3B2FBF3F318461C
:105A780001F07FFD0346002B01D001230EE07B6877
:105A88000F2B0AD8002279684FF0FF3001F039FD5A
:105A9800064A7B681360002300E001231846083794
:105AA800BD4680BD40000020480000204400002082
:105AB80080B400AF054B1B781A46054B1B6813448E
:105AC800034A136000BFBD4680BC704748000020F1
